:040000000200A13227
:01000B0032C2
:03001300020731B0
:01001B0032B2
:0100230032AA
:03002B000235B0EB
:01003300329A
:01003B003292
:01004300328A
:03004B00023CBDB7
:01005300327A
:01005B003272
:01006300326A
:03006B000212F38B
:0301170002006E75
:03006E0002034A40
:10011A00C082C083E5812404F5817C007D00C3741C
:10012A00C89C74808DF063F08095F0500B7490C376
:10013A009CFA74019DFB80048C028D03E58124FBEB
:10014A00F886078F82C007C005C004C003C0021228
:10015A0007E6D002D003D004D005D007E58124FDFC
:10016A00F8E4F608F6E58124FDF8C3E69A08E664A1
:10017A00808BF063F08095F0501DE58124FDF8A98D
:10018A008119E6F70809E6F7E58124FDF8740126E6
:10019A00F6E40836F680CE8F82C005C004C003C0DC
:1001AA00021207F3D002D003D004D005E58124FD62
:1001BA00F8E4F608F674C8C39AFEE49BFFE58124C6
:1001CA00FDF8C3E69E08E664808FF063F08095F040
:1001DA00501DE58124FDF8A98119E6F70809E6F71B
:1001EA00E58124FDF8740126F6E40836F680CE0C83
:1001FA00BC00010DC3EC9490ED648094815003021D
:10020A000128E58124FAF58122E5812408F5817E19
:10021A000C7F78E58124F9FD7C07EC2DF98E828F1D
:10022A0083E0FBA3AE82AF83A7031CEC30E7EB7439
:10023A00072DF987077E0074062DF987048C03E4DD
:10024A004207EB420689047B007A40C007C006C019
:10025A00057402C0E0E4C0E0C004C003C002900319
:10026A000A75F00012414AE58124FBF581D005D0D8
:10027A0006D00790A671E493FBA3E493FCC007C0E1
:10028A0006C005C004C00374CDC0E074ABC0E01260
:10029A00029E8008C003C0049000022215811581C5
:1002AA00D003D004D005D006D00790A671E493FB02
:1002BA00A3E493FCC005C004C003C007C006120231
:1002CA00CD8008C003C0049000032215811581D097
:1002DA0003D004D00590A671E493FEA3E493FFC073
:1002EA0007C006C0057419C0E0E4C0E01202FB8032
:1002FA0008C006C0079000012215811581D005D0DB
:10030A0006D00790A675E493FEA3E493FF7C007BD6
:10031A0040C007C0067408C0E0E4C0E0C005C004DD
:10032A00C0031203318008C006C00790000922E505
:10033A008124FBF581D006D007E58124F8F58122D6
:10034A001234E8125C1B1213701207BD7582071271
:10035A0007F390000112011A121D0A12057D90146A
:10036A00EE1207251216F090000212011A90A584C7
:10037A0075F0801225A790A59F75F0801225A79089
:10038A00624AE0FFBF8D028030BF95028020BFA580
:10039A00028005BFB52C800B90A5B075F0801225A0
:1003AA00A7801F90A5B775F0801225A7801490A585
:1003BA00BE75F0801225A7800990A5C575F0801238
:1003CA0025A790A5CC75F0801225A7906277E0FF4B
:1003DA000F8F821225D290A5D475F0801225A7120C
:1003EA00078D9000001251CBE4C0E0C0E0C0E0905D
:1003FA000A9F75F00012172F158115811581125564
:10040A003B122657120213E4C0E0C0E0C0E0900A93
:10041A00B775F00012172F15811581158190A5F572
:10042A00E493FEA3E493FFC007C0067401C0E0E4AE
:10043A00C0E01204418008C006C00790008122155E
:10044A00811581D006D00790A5E8E493FEA3E49332
:10045A00FFC007C0067401C0E0E4C0E012046B806C
:10046A0008C006C0079000812215811581D006D0E8
:10047A00071226BD90A5DD75F0801232A5120791EC
:10048A0090000412011A120795900215E0E0603FED
:10049A001210A1E5828583F045F0602E1210D7AEC6
:1004AA0082AF83C007C0061234D1AC82AD83D006B6
:1004BA00D007EEC39CFEEF9DFF1EBEFF011FC37453
:1004CA00FF9E747F9F5003120DDC900215E4F01218
:1004DA001F7DAE82AF83EE70AD90A669E493FEA352
:1004EA00E493FFC007C0068E828F83120071858253
:1004FA0008858309D006D007E508450960881236C1
:10050A00BF90A663E493FEA3E493FFC007C006125C
:10051A003A4BAB82AC83ADF0D006D007C007C00619
:10052A007480C0E0E4C0E0120536800BC006C00744
:10053A008B828C838DF0228582088583091581152B
:10054A0081D006D007E508450970030204908508A2
:10055A0082850983123A3F90A6A2E493FEA3E4930C
:10056A00FFC007C0068E828F83120071D006D007A3
:03057A00020490E8
:10A58400436F6E74696B692D332E782D31363130FB
:10A594002D67353636623235310A00544920536D01
:10A5A400617274524630352045420A006363323585
:10A5B4003330006363323533310063633235333310
:10A5C40000636332353430002D463235362C20009A
:09A5D4004B42205352414D0A0094
:10057D0075C2D875C50BAFF174FE5FF5F143F30C81
:10058D00AF8074DF5FF58043FD28AFFD74EB5FF541
:10059D00FD75C40275868043C480438640D2AA226D
:1005AD00AF82C2E98FC110E90280FB22AD82AE831A
:1005BD00AFF012625FFBA312625FFCBB0005BC00D3
:1005CD000280030206AB75C23B75C50875FA3B7513
:1005DD00FC08C007C006C00512057D75820D120509
:1005ED00AD75820A1205ADD005D006D007900A94DC
:1005FD00E0FBA3E0FC900A8EE0F9A3E0FAC3EB99CF
:10060D00EC64808AF063F08095F0503CEB2470F53B
:10061D0082EC340AF583E0FC7B00900004ECF0EBF7
:10062D00A3F08C82C007C006C0051205ADD005D061
:10063D0006D007900A94E0FBA3E0FC900A947401A5
:10064D002BF0E43CA3F080A575820DC007C006C059
:10065D00051205AD75820A1205ADD005D006D0077D
:10066D00900A92E0FBA3E0FC900A90E0F9A3E0FA77
:10067D00C3EB99EC64808AF063F08095F0501FEB2A
:10068D00247FF582EC340AF583E0FA900006F0E45D
:10069D00A3F0900A92042BF0E43CA3F080C28D826B
:1006AD008E838FF0E412337EA312337E7582032284
:06A5DD00960A00000000D8
:10A6EA0048454C4C4F7561727430203A290A00482B
:10A6FA00454C4C4F7561727431203A500A000F0074
:0FA70A000F0000000000000000B9050000000073
:1006BD00AE82AF83C28DBE0005BF00028008BE04AE
:1006CD000DBF000A80047F3E80087F3F800490FFAD
:1006DD00FF228FB6108D0280FBAEBA7F00ACBB8CB3
:1006ED0005E44206ED4207EFC4CEC4540F6ECE545E
:1006FD000FCE6ECE8E82F5832290000122AE82AF98
:10070D0083BE8010BF000D9061BD7401F090624BEF
:08071D00F075F20090000122CA
:0DA5E300ECA580BD060A07060741444300B1
:10072500AF83E582900008F0EFA3F022C020C0E07F
:10073500C0F0C082C083C007C006C005C004C003A6
:10074500C002C001C000C0D075D000C28B900008A7
:10075500E0FEA3E0FF4E6013120762800E900008D2
:10076500E0C0E0A3E0C0E085C18222D0D0D000D0B7
:1007750001D002D003D004D005D006D007D083D055
:1007850082D0F0D0E0D0203275C9002243C90822BA
:10079500740F55C944A0F5C9740F55C94450F5C91E
:1007A5002275C903C2AF43C9080080FDAF8290001E
:1007B5000AEFF08F8202346112343A90000AE4F0B5
:1007C5002290000AE0F4FFF582C0071208029001AA
:1007D5009012347FD0078F82020802023445020747
:1007E500B1AF8290000AE042078F820207B1E5822D
:1007F500F4FF90000AE052078F820207B1AF8290A2
:10080500000AE062078F820207B1E5812407F581BE
:1008150090000BE0F5F0A3E045F0700A90000EE4BF
:10082500F0A3F002099F1234D1AE82AF83E5812493
:10083500FCF8A60608A60790000BE0FBA3E0FCA3C6
:10084500E0FDA8811818A60308A60408A605A88136
:10085500181886820886830886F012625FFAA3124A
:10086500625FFFA8811818740226FCE40836FD08AB
:1008750086068C828D838EF012625FFCA312625F06
:10088500FDEC2AFAED3FFFE58124FCF8EAC396FA70
:10089500EF0896FFE58124FAF8A60208A607A881C5
:1008A5001818740426FBE40836FC0886058B828C30
:1008B500838DF0A881181812625FF6A312625F0893
:1008C500F6A312625F08F6A8811818E4C0E0C0E03C
:1008D500C0E086820886830886F0120073158115AC
:1008E5008115817003020989A881181886820886F6
:1008F500830886F012625FFCA312625FFDA881186F
:1009050018740226FAE40836FB0886078A828B8368
:100915008FF012625FFEA312625FFFEE2CFAEF3DCD
:10092500FBE58124FCF8EAC396FAEB0896FBE58122
:1009350024FAF8C3EA96EB0896501DEE2CFCEF3D21
:10094500FDE58124FCF8ECC396FCED0896FDE581F8
:1009550024FAF8A60408A605A8811818740426FD2B
:10096500E40836FE0886078D828E838FF0A88118ED
:100975001812625FF6A312625F08F6A312625F089F
:10098500F60208CCE58124FCF8E58124FAF990000B
:100995000EE726F009E70836A3F0E58124F9F5818D
:1009A50022E581240CF581AD82AE83AFF07C011286
:1009B500625FFAA312625FFBBA0005BB0002800BFF
:1009C500BA5905BB0002801E020DC490000BE4F06D
:1009D500A3F0A3F07C008D828E838FF074591233BF
:1009E5007EA3E412337EEC7006758201020DD5E517
:1009F5008124F2F8B687028003020BA9E58124EF72
:100A0500F8A9811919E6F70809E6F70809E6F79044
:100A1500000BE0FAA3E0FBA3E0FCEA4B6078C0051D
:100A2500C006C00774072AFDE43BFE8C078D828E45
:100A3500838FF012625FFDA312625FFEA312625FF5
:100A4500FFE58124FBF8C005C006C007868208863D
:100A5500830886F01200731581158115816008D011
:100A650007D006D005802FD007D006D00574042AFC
:100A7500FAE43BFB8A828B838CF012625FFAA31245
:100A8500625FFBA312625FFC90000BEAF0EBA3F040
:100A9500ECA3F0020A1490000BE0FAA3E0FBA3E03C
:100AA500FC90000BE0F5F0A3E045F070030209D9D6
:100AB500E58124FBF8A60208A60308A604E581241F
:100AC500FBF8740426FAE40836FB0886048A828B50
:100AD500838CF0E58124F5F812625FF6A312625F5C
:100AE50008F6A312625F08F6E58124F5F8E60846E4
:100AF50070030209D9C005C006C007E58124F2F8D4
:100B0500740726FDE40836FE0886078D828E838FDE
:100B1500F012625FFDA312625FFEA312625FFFE542
:100B25008124FBF8C005C006C007868208868308B5
:100B350086F01200731581158115816008D007D0E4
:100B450006D0058041E58124F2F8740426FDE40809
:100B550036FE0886078D828E838FF012625FFDA3B5
:100B650012625FFEA312625FFF8A828B838CF0EDB7
:100B750012337EA3EE12337EA3EF12337ED007D05D
:100B850006D005020AC28A828B838CF0E58124FB9C
:100B9500F812625FF6A312625F08F6A312625F089D
:100BA500F6020AC2E58124F2F8B682028003020940
:100BB500D9E58124F8F8E4F608F608760090000BEC
:100BC500E0FAA3E0FBA3E0FCE58124FBF8A602081C
:100BD500A60308A604E58124FBF8E4C0E0C0E0C054
:100BE500E086820886830886F012007315811581D8
:100BF500158170030209D9E58124FBF886820886F0
:100C0500830886F0C007C006C005122770E58285F7
:100C150083F0D005D006D00745F07003020D82C0E1
:100C250005C006C007E58124F8F886020886030892
:100C35008604E58124F8F8E58124F2F9740726F79E
:100C4500E4083609F70809E6F7E58124F2F8868213
:100C55000886830886F012625FFDA312625FFEA319
:100C650012625FFFC005C002C003C0047488C0E003
:100C75008D828E838FF0121FB6AE82AF83E58124FD
:100C8500FCF581D005EE4FD007D006D005600302F4
:100C95000D73E58124F5F886820886830886F0E4DD
:100CA50012337EA312337EA312337EE58124F8F836
:100CB500E608466056C005C006C007E58124F5F87C
:100CC500740426FAE40836FB088604E58124F8F85E
:100CD500740426FDE40836FE0886078D828E838F10
:100CE500F012625FFDA312625FFEA312625FFF8ACC
:100CF500828B838CF0ED12337EA3EE12337EA3EF4D
:100D050012337ED007D006D005802FE58124FBF86D
:100D1500740426FAE40836FB0886048A828B838CE1
:100D2500F012625FFAA312625FFBA312625FFC908E
:100D3500000BEAF0EBA3F0ECA3F0E58124FBF874DB
:100D45000426FAE40836FB0886048A828B838CF035
:100D5500E412337EA312337EA312337EC007C0068E
:100D6500C00512080FD005D006D007020BB6C00784
:100D7500C006C005120DDCD005D006D007E58124DC
:100D8500FBF8E58124F8F9E6F70809E6F70809E62E
:100D9500F7E58124FBF8740426FAE40836FB088697
:100DA500048A828B838CF0E58124FBF812625FF65E
:100DB500A312625F08F6A312625F08F6020BDA8DD2
:100DC500828E838FF0E412337EA312337E75820305
:100DD500E58124F4F58122900A9F75F000022088B0
:100DE500C082C083C0F0058105810581120DDCE557
:100DF5008124FBF8A9811919740726F7E408360937
:100E0500F70809E6F7A881181886820886830886F8
:100E1500F012625FFDA312625FFEA312625FFFED37
:100E25004E7003020EB990000BE0FDA3E0FEA3E0B7
:100E3500FFE4C0E0C0E0C0E08D828E838FF0120039
:100E450073158115811581606BE58124FBF8C0055B
:100E5500C006C00786820886830886F012007315CF
:100E650081158115816002802B900AB4E0FAA3E018
:100E7500FBA3E0FCA881181886820886830886F003
:100E8500EA12337EA3EB12337EA3EC12337E1208F3
:100E95000F020F2274042DFAE43EFB8F048A828B25
:100EA500838CF012625FFDA312625FFEA312625F84
:100EB500FF020E36900AB4E0FDA3E0FEA3E0FFA812
:100EC50081181886820886830886F0ED12337EA382
:100ED500EE12337EA3EF12337EE58124FBF8740412
:100EE50026FDE40836FE08860790000BE0FAA3E02D
:100EF500FBA3E0FC8D828E838FF0EA12337EA3EB99
:100F050012337EA3EC12337EE58124FBF890000BAF
:100F1500E6F008E6A3F008E6A3F012080FE5812441
:100F2500FAF58122AD82AE83AFF0C007C006C005D9
:100F3500E58124FAF8E6C0E008E6C0E08D828E83FC
:100F45008FF01226C615811581D005D006D0078DE4
:100F5500828E838FF0020DE5AD82AE83AFF0C007C0
:100F6500C006C00512270CD005D006D00774022D87
:100F7500FAE43EFB8F048A828B838CF0E58124FDA5
:100F8500F8E612337EA308E612337E8D828E838FB8
:100F9500F0020DE5AD82AE83AFF0C007C006C00517
:100FA50012270CD005D006D0078D828E838FF002D4
:100FB5000DE5AD82AE83AFF0C007C006C0051227B0
:100FC50048D005D006D0078D828E838FF0020DE5BF
:100FD500C082C083C0F0A88118188682088683085D
:100FE50086F012625FFBA312625FFCE58124FAF8CA
:100FF5008602088607EA2BFBEF3CFCA881181886B9
:10100500820886830886F0EB12337EA3EC12337ECA
:1010150012080F15811581158122AD82AE83AFF0BF
:1010250074072DFDE43EFE8D828E838FF012625F84
:10103500FDA312625FFEA312625FFFE4C0E0C0E0A1
:10104500C0E08D828E838FF0120073158115811596
:10105500817003048001E4FD3395E08D82F58322E0
:10106500AD82AE83AFF012625FFBA312625FFC74C8
:10107500022DFDE43EFE8D828E838FF012625FFDB0
:10108500A312625FFEED2BFBEE3C8B82F5832212F1
:10109500625FFDA312625F8D82F5832290000BE0F3
:1010A500FDA3E0FEA3E0FFE4C0E0C0E0C0E08D8268
:1010B5008E838FF0120073158115811581700304DD
:1010C5008001E4FDB40100E433FD3395E08D82F544
:1010D50083221210A1E5828583F045F0600A900015
:1010E5000EE0FEA3E0FF80047E007F008E828F83EA
:1010F50022C082C083C0F090000BE0FAA3E0FBA3FE
:10110500E0FCA8811818C002C003C00486820886C6
:10111500830886F0120073158115811581600280A0
:101125002E74042AFDE43BFE8C078D828E838FF09E
:1011350012625FFDA312625FFEA312625FFF900061
:101145000BEDF0EEA3F0EFA3F012080F0211F3E49C
:10115500C0E0C0E0C0E08A828B838CF0120073157A
:101165008115811581604274042AFDE43BFE8C07DC
:101175008D828E838FF012625FFDA312625FFEA3E4
:1011850012625FFFA8811818C005C006C0078682D5
:101195000886830886F01200731581158115816014
:1011A500088D028E038F0480A6EA4B604174042AE1
:1011B500FAE43BFBA8811818740426FDE40836FE02
:1011C5000886078D828E838FF012625FFDA31262FF
:1011D5005FFEA312625FFF8A828B838CF0ED123370
:1011E5007EA3EE12337EA3EF12337E12080FA88181
:1011F5001818740426FDE40836FE0886078D828ECD
:10120500838FF0E412337EA312337EA312337EA8BC
:10121500811818740726FDE40836FE0886078D82B6
:101225008E838FF0E412337EA312337EA312337EB6
:0712350015811581158122CE
:09A71900000000A6090000000088
:10123C0020811590000A75F040122770AE82AF83A2
:10124C00EE4F60047F0080027F01EF3395E08F82C8
:10125C00F58322AE82AF83BE8105BF00028006BE3D
:10126C00820FBF000C740255ABFF7E008F828E8301
:10127C002290000022AE82AF83BE8005BF000280A8
:10128C0008BE815FBF005C801C438F02AF8C74FE74
:10129C005FF58CAFF374FD5FF5F3AFFD74FD5FF597
:1012AC00FD90000122E58124FDF8E608466027E563
:1012BC00AB20E12BE4C0E0C0E090000A75F04012D6
:1012CC0026C615811581AF8974FD5FF589C2C543AA
:1012DC00AB02D2BD8009AFAB74FD5FF5ABC2BD9064
:1012EC0000012290000022C020C0E0C0F0C082C0EB
:1012FC0083C007C006C005C004C003C002C001C043
:10130C0000C0D075D000C2AFE58930E12F90000A43
:10131C0075F040122770E5828583F045F0601D74EE
:10132C0010C0E0E4C0E090000A75F0401226C6152B
:10133C0081158190A5F075F0801221E2AF8974FDC2
:10134C005FF589C2C5D2AFD0D0D000D001D002D0C9
:10135C0003D004D005D006D007D083D082D0F0D0F3
:04136C00E0D020327B
:10A5F000F9A5803C1281125F12427574746F6E006F
:10137000023C9605810581AD82AE83AFF0A881184D
:10138000E4F608F6900010E0F5F0A3E045F07008F0
:10139000A88118760108760074022DFAE43EFB8FCE
:1013A000048A828B838CF0E58124F7F8E612337E81
:1013B000A308E612337E74042DFAE43EFB8F048A00
:1013C000828B838CF0E58124F4F8E612337EA30847
:1013D000E612337EA308E612337E8D828E838FF071
:1013E000E58124FBF8E612337EA308E612337E90F3
:1013F0000010EDF0EEA3F0EFA3F0A88118B60111F4
:1014000008B6000DE58124FBF88682088683123C2D
:10141000A490000015811581220581058105819028
:101420000010E0FDA3E0FEA3E0FF900010E0F5F067
:10143000A3E045F070030214E7A8811818A6050878
:10144000A60608A607900010E4F0A3F0A3F0A88178
:101450001818740226FAE40836FB0886048A828B80
:10146000838CF012625FFAA312625FFBA8811818E6
:10147000740426FCE40836FE0886078C828E838F6F
:10148000F012625FFCA312625FFEA312625FFFC0F4
:1014900003C002C004C006C00712149E8012C0021E
:1014A000C003E58124F5F886820886830886F02249
:1014B000158115811581D002D003900010E0FDA3A5
:1014C000E0FEA3E0FF900010E0F5F0A3E045F0603F
:1014D000168D828E838FF012625FFDA312625FFE13
:0E14E0008D828E83123CA41581158115812208
:0600D000E478FFF6D8FD04
:0500FA0090009AE4F003
:1014EE00AF82BF0D049000002290009AE0701DC0E4
:1014FE000790001375F000123D8DAD82AE831581FD
:10150E00ED4E702590009A7401F0801DBF0A1AC02E
:10151E000790001375F000123D8DAE82AF831581DA
:10152E00EE4F600590009AE4F0900AA875F0001254
:10153E0020889000012205810581AD82AE83AFF037
:10154E007C0112625FFAA312625FFBBA0005BB0058
:10155E00028014BA6705BB00028065BA7906BB002B
:10156E00030216BE0216DAC007C006C00512172502
:10157E00E582D005D006D007900099F090011BE4CB
:10158E00F0A3F090001375F000C007C006C005125E
:10159E003EA4AA82AB83D005D006D007A88118A698
:1015AE000208A603A88118B6FF1F08B6FF1B7C0011
:1015BE008D828E838FF0746712337EA3E412337E96
:1015CE00EC70C07582010216EBA88118B60A0608E7
:1015DE00B60002804290011BE0FAA3E0FBC3EA943E
:1015EE007FEB64809480509BC005C006C0079001BD
:1015FE001B74012AF0E43BA3F0EA249BFAEB3400BF
:10160E00FBE58124FCF886078A828B83EFF0D007F6
:10161E00D006D005021591C005C006C00790011B6B
:10162E00E0FAA3E0FB90011B74012AF0E43BA3F067
:10163E00EA249BF582EB3400F583E4F0C007C00684
:10164E00C005749BC0E07400C0E0E4C0E090009957
:10165E00E0C0E090000075F000121FB6E58124FC9A
:10166E00F581D005D006D007900AB4E0FAA3E0FBCE
:10167E00A3E0FFC005E4C0E0C0E0C0E07485C0E0B8
:10168E008A828B838FF0121FB6AE82AF83E58124E0
:10169E00FCF581D005EE4FD007D006D0057023FCA7
:1016AE008D828E838FF0747912337EA3E412337E93
:1016BE00EC600AE58124FCF8B6850280057582018E
:1016CE00801B90011BE4F0A3F00215918D828E8396
:1016DE008FF0E412337EA312337E758203158115CB
:1016EE0081227480C0E07419C0E07400C0E0E4C0D0
:1016FE00E090001375F000123D0EE58124FCF5819B
:10170E00E4C0E0C0E0C0E0900AA875F00012172F08
:07171E0015811581158122E0
:09A72200000000441500000000D5
:1017250090011DE0FF04F08F8222C082C083C0F0CB
:10173500900AB1E0FAA3E0FBA3E0FC8A058B068CD6
:1017450007A8811818C005C006C0078682088683C9
:101755000886F0120073158115811581602EE4C08D
:10176500E0C0E0C0E08D828E838FF012007315819A
:101775001581158160168D828E838FF012625FFD53
:10178500A312625FFEA312625FFF80B5A8811818DD
:10179500C005C006C00786820886830886F0120049
:1017A500731581158115816002800302183FA88198
:1017B500181886820886830886F0EA12337EA3EB22
:1017C50012337EA3EC12337EA8811818900AB1E675
:1017D500F008E6A3F008E6A3F0A881181874072618
:1017E500FDE40836FE0886078D828E838FF074012E
:1017F50012337EA8811818740526FDE40836FE0804
:1018050086078D828E838FF0E412337EA312337E9A
:10181500E58124F9F8E6C0E008E6C0E008E6C0E0A6
:101825007481C0E0E58124FAF886820886830886FB
:10183500F0122038E58124FCF5811581158115818B
:1018450022C082C083C0F0E5812406F581900AB4E8
:10185500E0FAA3E0FBA3E0FCA8811818A60208A6FD
:101865000308A604900AB1E0FAA3E0FBA3E0FCE5B7
:101875008124FBF8A60208A60308A604E58124FB3B
:10188500F8E58124F8F9E7C0E009E7C0E009E7C019
:10189500E086820886830886F0120073158115811B
:1018A50015816040E58124FBF8E4C0E0C0E0C0E0BC
:1018B50086820886830886F01200731581158115C6
:1018C500816021E58124FBF886820886830886F0FD
:1018D50012625F1818F6A312625F08F6A312625F20
:1018E50008F68098E58124FBF8E608467003021B9C
:1018F50097E58124F8F886820886830886F0122009
:10190500C4E5828583F045F07003021A81E58124E0
:10191500F8F8740726FDE40836FE0886078D828EE2
:10192500838FF0E412337E900AB1E0FDA3E0FEA3BD
:10193500E0FFE58124FBF8A60508A60608A607E54D
:101945008124FBF8E4C0E0C0E0C0E086820886831D
:101955000886F01200731581158115816077E58180
:1019650024F8F8E58124FBF9E7C0E009E7C0E009C0
:10197500E7C0E086820886830886F0120073158129
:1019850015811581602DE58124F8F8860508860600
:10199500088607C005C006C0077487C0E0E5812436
:1019A500F7F886820886830886F0121B9EE5812457
:1019B500FCF581E58124FBF886820886830886F09C
:1019C50012625F1818F6A312625F08F6A312625F2F
:1019D50008F6021944E58124F8F8740326FDE408A5
:1019E50036FC0886038D828C838BF012625FFEA322
:1019F50012625FFF4E7003021A81E58124F8F8E553
:101A05008124F3F9E7C0E009E7C0E009E7C0E08613
:101A1500820886830886F012007315811581158169
:101A2500605AE58124F8F8900AB4E6F008E6A3F0D8
:101A350008E6A3F08D828C838BF012625FFBA31204
:101A4500625FFCE58124F8F8740526FDE40836FE9E
:101A5500088607C004C003E4C0E0C0E0C0E07483AA
:101A6500C0E0121A6C800BC003C0048D828E838F78
:101A7500F022E58124FCF581D003D004900AB1E081
:101A8500FCA3E0FBA3E0FAE58124F8F8C004C00359
:101A9500C00286820886830886F0120073158115B8
:101AA500811581600280228C828B838AF012625FAD
:101AB500FDA312625FFEA312625FFF900AB1EDF013
:101AC500EEA3F0EFA3F0021B868C058B068A07E5D3
:101AD5008124FBF8A60508A60608A607E58124FBD0
:101AE500F8E4C0E0C0E0C0E086820886830886F09E
:101AF5001200731581158115817003021B86E5811E
:101B050024FBF886820886830886F012625FFDA3AF
:101B150012625FFEA312625FFFE58124F8F8C0053B
:101B2500C006C00786820886830886F012007315F2
:101B3500811581158160028038E58124F8F8868257
:101B45000886830886F012625FFAA312625FFBA320
:101B550012625FFCE58124FBF8868208868308868D
:101B6500F0EA12337EA3EB12337EA3EC12337E80B0
:101B750010E58124FBF8A60508A60608A607021AA3
:101B8500E1A8811818900AB4E6F008E6A3F008E683
:101B9500A3F0E58124F7F58122C082C083C0F0055A
:101BA5008105810581E58124FBF8740726FAE4089F
:101BB50036FB0886048A828B838CF012625FFF20D5
:101BC500E003021CDFE58124FBF8A98119197403E0
:101BD50026F7E4083609F70809E6F7A881181886F4
:101BE500820886830886F012625FFEA312625FFF99
:101BF5004E7003021CDFE58124FBF8900AB4E6F081
:101C050008E6A3F008E6A3F08A828B838CF07402C1
:101C150012337EA881181886820886830886F012FA
:101C2500625FFEA312625FFFC002C003C004E581CC
:101C350024F8F8740526FBE40836FC088605C00779
:101C4500C004C003C002E58124EEF8E6C0E008E662
:101C5500C0E008E6C0E0E58124EEF8E6C0E0121C2D
:101C650068800BC006C0078B828C838DF022AE8204
:101C7500E58124FCF581D002D003D004D007EE33F2
:101C850095E0FFBE020BBF0008D004D003D0028050
:101C950016D004D003D002BE0305BF00028008E5BC
:101CA5008124F8F8B68328E58124FBF8E6C0E0082E
:101CB500E6C0E008E6C0E0E58124F8F886820886FB
:101CC500830886F0121846158115811581800B8AC7
:101CD500828B838CF0740112337EE58124FAF581C1
:101CE50022AD82AE83AFF0900AB4E0C0E0A3E0C0BD
:101CF500E0A3E0C0E08D828E838FF0121846158137
:101D0500158115812290011D748AF090011FE4F060
:101D150090011EF0900AB1F0A3F0A3F0900AB4F080
:101D2500A3F0A3F022058105810581900200E4F06E
:101D3500900AB1E0FDA3E0FEA3E0FFA8811818A674
:101D45000508A60608A607A8811818E4C0E0C0E0A3
:101D5500C0E086820886830886F012007315811517
:101D65008115817003021DECA8811818740826FAE4
:101D7500E40836FB0886048A828B838CF012625F46
:101D85006044A8811818740726FDE40836FE088605
:101D9500078D828E838FF0740112337E8A828B8346
:101DA5008CF0E412337EC0E0C0E0C0E07482C0E095
:101DB500E58124FAF886820886830886F0121B9E40
:101DC500E58124FCF581A881181886820886830898
:101DD50086F012625F1818F6A312625F08F6A31266
:101DE500625F08F6021D4C1581158115812290014F
:101DF5001EE0FFE070012290011FE0FE75F007A4D0
:101E0500FCADF02420F582ED3401F583E09002016C
:101E1500F0EC2420FCED3401FD8C828D83A3E0F9E8
:101E2500A3E0FAA3E0FB900202E9F0EAA3F0EBA33A
:101E3500F08C828D83A3A3A3A3E0FBA3E0FCA3E026
:101E4500FD900205EBF0ECA3F0EDA3F07D000EBED6
:101E550000010DC0077420C0E0E4C0E08E828D83D0
:101E650012627BAD8215811581D00790011FEDF0BF
:101E7500EF1490011EF0900205E0FDA3E0FEA3E043
:101E8500FF900205E0F5F0A3E045F06003021F3482
:101E9500900AB1E0FAA3E0FBA3E0FC900208EAF0A7
:101EA500EBA3F0ECA3F0900208E0FAA3E0FBA3E0BB
:101EB500FCE4C0E0C0E0C0E08A828B838CF01200B5
:101EC50073158115811581700122900200E0E06093
:101ED50003121D2A900208E0FAA3E0FBA3E0FC90A0
:101EE5000202E0C0E0A3E0C0E0A3E0C0E090020190
:101EF500E0C0E08A828B838CF0121B9EE58124FC76
:101F0500F581900208E0FAA3E0FBA3E0FC8A828B4E
:101F1500838CF012625FFAA312625FFBA312625F09
:101F2500FC900208EAF0EBA3F0ECA3F0021EAB90E4
:101F35000201E0FCBC811274072DFDE43EFE8D829A
:101F45008E838FF0740112337E900205E0FDA3E0CD
:101F5500FEA3E0FF900202E0C0E0A3E0C0E0A3E042
:101F6500C0E0900201E0C0E08D828E838FF0121BED
:101F75009EE58124FCF58122900200E0E0600312D9
:101F85001D2A121DF390011EE0FF7E00900200E065
:101F95007C002FFFEC3E8F82F5832290011EE0FF2F
:101FA5007E00900200E07C002FFFEC3E8F82F583DF
:101FB50022AD82AE83AFF090011EE0FCBC20049000
:101FC50000012290011FE02C541FFC90020BF0EC45
:101FD50075F007A42420F582740135F0F583A881F6
:101FE5001818E6F090020BE075F007A42420FB74A6
:101FF5000135F0FC8B828C83A3E58124FBF8E6F0A8
:1020050008E6A3F008E6A3F090020BE075F007A43C
:102015002420FB740135F0FC8B828C83A3A3A3A33E
:10202500EDF0EEA3F0EFA3F090011EE02401F09097
:10203500000022AD82AE83AFF0900AB4E0FAA3E0CF
:10204500FBA3E0FCC004C003C002E58124F8F8E668
:10205500C0E008E6C0E008E6C0E0E58124F8F8E65F
:10206500C0E08D828E838FF0121B9EE58124FCF5E6
:1020750081D002D003D004900AB4EAF0EBA3F0ECCF
:10208500A3F022AD82AE83AFF0ED4E603174072D23
:10209500FAE43EFB8F048A828B838CF012625FFC2C
:1020A500BC01028003BC021674082DFDE43EFE8DC2
:1020B500828E838FF0740112337E900200F022AD80
:1020C50082AE83AFF074072DFDE43EFE8D828E83D4
:1020D5008FF012625FFDE4BD000104FDB40100E470
:0A20E50033FD3395E08D82F5832270
:06A72B0000000000000028
:1020EF00C082C083C0F0058105817B007C00A88180
:1020FF0018E4F608F67D007E00C003C00490020DC0
:10210F00E0FC7B00E58124FDF8C3E69C08E66480D3
:10211F008BF063F08095F0D004D003505FC003C004
:10212F0004ED24C0F582EE340AF583E0FBA3E0FC56
:10213F00A3E0FFE58124FAF8C003C004C00786823C
:10214F000886830886F0120073158115811581604A
:10215F0006D004D003800AD004D0038B828C8380F6
:10216F001F74032DFDE43EFEA8811806B600020879
:10217F0006A8811886030886040221088B828C83A7
:10218F00E58124FBF58122900AC0E0FDA3E0FEA3C8
:10219F00E0FF8D828E838FF0221220EFE582858300
:1021AF00F02401FEE435F0FFC006C00790000312D3
:1021BF00339CAE82AF8315811581EE24C0F582EF7B
:1021CF00340AF583E0FDA3E0FEA3E0FF8D828E834A
:1021DF008FF0221220EFAE82AF83EE2412FEEF3487
:1021EF0002FF8E828F83E0FD4305808E828F83ED09
:1021FF00F0900AB775F000022088C082C083C0F04B
:10220F00E5812407F58124F7F886820886830886FE
:10221F00F0125C03A88118A68208A6837A007C00BE
:10222F007B007F0090020DE0FE7D00C3EA9EEC6410
:10223F00808DF063F08095F040030222FFC002C052
:10224F0004E58124F8F8EB24C0F6EF340A08F6E52C
:10225F008124F8F88682088683E0FAA3E0FCA3E0E5
:10226F00FE8A828C838EF012625FFAA312625FFC89
:10227F00A312625FFEC007C004C003C002E5812441
:10228F00F9F8E6C0E008E6C0E0C002C004C006E509
:10229F008124ECF886820886830886F0123FF4AD1D
:1022AF0082AE83E58124FBF581D002D003D004D028
:1022BF0007D004D002ED4E7028E58124FAF886820B
:1022CF00088683E58124FCF9E0F7A3E009F7A3E092
:1022DF0009F7E58124FCF886820886830886F0805A
:1022EF001574032BFBE43FFF0ABA00010C022233E3
:1022FF0090000075F000C8E58124F6F581C822AD85
:10230F0082AE83AFF07C0112625FFAA312625FFBB1
:10231F00BA0005BB00028015BA7706BB0003022482
:10232F0061BA7E06BB0003022533022595C007C0A4
:10233F0006C005121725E582D005D006D0079002FA
:10234F000CF090020EE4F0A3F0C005C006C0079099
:10235F00020EE0FAA3E0FBC005C003C002C002C03A
:10236F000390000312339CAE82AF8315811581D089
:10237F0002D003D005EE24C0F582EF340AF583E0D6
:10238F00FDA3E0FEA3E0FFE4C0E0C0E0C0E08D826B
:10239F008E838FF01200731581158115817009D00E
:1023AF0007D006D00502244AD007D006D005C005B5
:1023BF00C006C007EA2412F582EB3402F583E4F07D
:1023CF00C00590020EE0C0E0A3E0C0E09000031251
:1023DF00339CAE82AF8315811581D005EE24C0F5F5
:1023EF0082EF340AF583E0FDA3E0FEA3E0FF74055E
:1023FF002DFDE43EFE8D828E838FF012625FFDA372
:10240F0012625FFEC007C006C005E4C0E0C0E01264
:10241F0024238008C005C0069000802215811581F5
:10242F00D005D006D00790020EE02401F0A3E034CF
:10243F0000F0D007D006D00502235890020DEAF025
:10244F007C008D828E838FF0747712337EA3E4121B
:10245F00337EEC700475820122900210E4F0A3F039
:10246F0090020EF0A3F0C005C006C00790020EE068
:10247F00FAA3E0FB90020DE0FF7E00C3EA9FEB643E
:10248F00808EF063F08095F0D007D006D005400322
:10249F00022583C005C006C007EA2412F582EB347B
:1024AF0002F583E0D007D006D00520E7030225749C
:1024BF00C005C006C007C007C006C005C002C003E4
:1024CF0090000312339CAA82AB8315811581D0052E
:1024DF00D006D007EA24C0F582EB340AF583E0FA80
:1024EF00A3E0FBA3E0FFC005C002C003C00790023A
:1024FF000CE0C0E090000075F000121FB6AE82AF86
:10250F0083E58124FCF581D005EE4FD007D006D0AE
:10251F00057027FC8D828E838FF0747E12337EA31D
:10252F00E412337EEC600F90020CE0FCA8811818C7
:10253F00E6B5040280047582012290020EE0FBA32F
:10254F00E0FCEB2412FBEC3402FC8B828C83E0FA70
:10255F0053027F8B828C83EAF0900210E02401F00B
:10256F00A3E03400F090020EE02401F0A3E0340069
:10257F00F0022475900210E0F5F0A3E045F060033F
:10258F0002246802244F8D828E838FF0E412337EF3
:08259F00A312337E75820322B2
:09A731000000000E2300000000EE
:1000AE0079B6E94400601B7A0190A6EA78707593E0
:1000BE000AE493F2A308B800020593D9F4DAF275B4
:0200CE0093FF9E
:1025A700AD82AE83AFF08D828E838FF012625FFCB7
:1025B70060180DBD00010E8C82C007C006C0051251
:1025C7003399D005D006D00780DC22E582FFC454BA
:1025D7000F90A60093F582C007123399D007740FA6
:1025E7005F90A60093F582023399AF827E80EE60FA
:1025F70025EE5FFDE4BD000104FDB40100E4339066
:10260700A61193F582C007C006123399D006D007EA
:10261700EEC313FE80D822AF827E007D648DF0EF7B
:1026270084FC8DF0EF84AFF0EC7006EE7003BD0113
:10263700167E0174302CF582C007C006C005123320
:1026470099D005D006D00775F00AED84FD70CE222B
:10A6000030313233343536373839616263646566E8
:10A610000030310030313233343536373839616209
:08A6200063646566003031003F
:1026570090A65BE493FEA3E493FFC007C0068E82B7
:102667008F83120071D006D00790A69CE493FEA337
:10267700E493FFC007C0068E828F83120071D006D5
:10268700D00790A67CE493FEA3E493FFC007C0069F
:102697008E828F83120071D006D00790A690E493A4
:1026A700FEA3E493FFC007C0068E828F83120071DA
:1026B700D006D007222222900000E4F5F02222ADB6
:1026C70082AE83AFF074022DFAE43EFB8F048A8258
:1026D7008B838CF0E58124FDF8E612337EA308E6B0
:1026E70012337EC007C006C0051234D1AB82AC835B
:1026F700D005D006D0078D828E838FF0EB12337E04
:10270700A3EC02337EAD82AE83AFF012625FFBA310
:1027170012625FFC74022DF8E43EF98F0288828909
:10272700838AF012625FF8A312625FF9E82BFBE974
:102737003CFC8D828E838FF0EB12337EA3EC023349
:102747007EAD82AE83AFF0C007C006C0051234D19C
:10275700AB82AC83D005D006D0078D828E838FF0F5
:10276700EB12337EA3EC02337EC082C083C0F0122B
:1027770034D1AB82AC83A881181886820886830877
:1027870086F012625FFAA312625FFFEBC39AFBEC5B
:102797009FFC0BBB00010CA8811818740226FDE4EE
:1027A7000836FE0886078D828E838FF012625FFDE2
:1027B700A312625FFEC3ED9BEE9CE433FB3395E00F
:1027C700FF8B828F8315811581158122AD82AE83A0
:1027D700AFF012625FFBA312625FFC74022DFDE48F
:1027E7003EFE8D828E838FF012625FFDA312625FC1
:1027F700FEED2BFBEE3CFCC004C0031234D1AE82CD
:10280700AF83D003D004EBC39EFBEC9F8B82F58391
:102817002290618FE0FF7E00742C2FFFE43EFE7450
:1028270005C0E0E4C0E08F828E83126D85AE82150D
:102837008115818E8222AF82BF0B004005EF24E510
:1028470050047582FF22C007122D17D007EF24F519
:1028570075F005A490618F240BF0C007122D02D0EC
:10286700078F8222906173E0FE7F00906172E07CA7
:10287700004207EC42068F828E8322AE82AF838EA0
:1028870004906172ECF0906173EFF022906175E053
:10289700FE7F00906174E07C004207EC42068F8265
:1028A7008E8322AE82AF838E04906174ECF09061C8
:1028B70075EFF02290618BE0E07006430E10122D49
:1028C70002906199E0FF30E0F8906198E024B7FF4B
:1028D7007410550EFEBE100EAE0E74EF5EF50EC0F0
:1028E70007122D17D007EF3395E08F82F5832290DB
:1028F7006196E0FF3395E0FEEF24B7FFEE34FF8FDC
:1029070082F58322AE8290619674492EF02205816A
:102917000581906190E0FF906191E0FEBE09109003
:10292700A658E493FDA3E493FE8D828E8380667D93
:10293700007E007B007C00A88118EB2428F6EC348D
:10294700A608F6A881188682088683A3A3E493FACB
:10295700C3EF9A401BA881188682088683E49318E0
:10296700F6A3E49308F6A881188682088683802553
:1029770074032BFBE43CFC0DBD00010EC3ED941169
:10298700EE6480948040B090A658E493FEA3E4934D
:10299700FF8E828F831581158122AE82AF8390A629
:1029A70058E493FCA3E493FDC3EC9EED64808FF0A1
:1029B70063F08095F040109061917409F090A65AE9
:1029C700E493906190F0227C0F7D007A2D7B00EAE2
:1029D7002428F582EB34A6F583E493F8A3E493F96E
:1029E700C3E89EE964808FF063F08095F0401B9008
:1029F70061917469F0EA2428F8EB34A6F988828992
:102A070083A3A3E493906190F022EA24FDFAEB34C8
:102A1700FFFB1CBCFF011DED30E7B422E582FF6020
:102A27000A906180E0FF74014FF022906180E0FF1F
:102A370074FE5FF022E582FF600A906189E0FF740F
:102A4700204FF022906189E0FF74DF5FF022E50EEE
:102A570030E004900000229061AB743FF09061ACCD
:102A67007455F090619674F8F09061FA7409F090DB
:102A770061B27415F09061AEE4F09061897440F032
:102A8700E0FF74204FF0906182E4F0906194747FCE
:102A9700F090619074D5F0430E0190000122C0823E
:102AA700C083C0F0906193E0FC20E1F8E50E20E7D9
:102AB70003122D0275E1EE75E1EEE58124FAF88641
:102AC7000474022CF5D97C008C027B00E58124FA82
:102AD700F8C3EA96EB08965020A8811818860208D2
:102AE7008603088607EC2AFAE43BFB8A828B838FEE
:102AF700F012625FF5D90C80CF75D90075D90090B7
:102B0700000015811581158122E50E20E73CAEE214
:102B17007F00ACE38C05E42EFEED3FFFC007C00647
:102B2700122D02D006D007430E1074052EFEE43F87
:102B3700FFACE27D00AAE38A03E4FA2CFCEB3DFD3F
:102B4700ECC39EFCED9FFD20E7E7122CDBE58285B9
:102B570083F045F0700490000222906193E0FF300B
:102B6700E5049000022275E1E97F00906193E0FEA1
:102B770020E1148F060FBE0300500C900006C0071B
:102B870012347FD00780E4906193E0FF20E10C7559
:102B9700E1EE75E1EE7E017F00800C906193E0FD30
:102BA70020E1F87E007F00E50E30E40BC007C00689
:102BB700122D17D006D0078E828F8322AD82AE8367
:102BC700AFF0E58124FDF8E6C0E008E6C0E08D82BD
:102BD7008E838FF0122AA515811581E58124FDF8D2
:102BE7008682088683022B10C082C083C0F0E5D995
:102BF700FC2480500C75E1ED75E1ED900000022C8E
:102C0700D4EC24FB400C75E1ED75E1ED900000027A
:102C17002CD48C027B00EA24FEFAEB34FFFBE5811F
:102C270024FAF8C3E69A08E69B500C75E1ED75E1C6
:102C3700ED900000022CD41C1C7B00C3EB9C50259C
:102C4700C004E58124FDF88602088604088607EBA0
:102C57002AFAE43CFC8A828C838FF0E5D912337E12
:102C67000BD00480D6E5D924B7FFE5D9FE30E73489
:102C7700EF3395E0FDC006C004C007C005758204A8
:102C8700123BEC15811581D004D00653067F7F00D7
:102C9700C004C006C007758203123BEC158115817D
:102CA700D004800B75E1ED75E1ED900000801E907A
:102CB7006193E0FF5307C0BF400D90619BE0E07058
:102CC7000675E1ED75E1ED7F008C828F8315811527
:102CD70081158122906193E0FF30E4049000012286
:102CE70090000022906193E090000022906193E0B1
:102CF700FF5307407E008F828E8322E50E20E70C6C
:102D070075E1ED75E1ED75E1E3430E809000012279
:102D170075E1EF75E1ED75E1EDAF0E747F5FF50ECF
:102D270090000122AE82AF83E58124FCF8E60846D5
:102D3700700475820222C3740D9EE49F5003022F14
:102D4700DAEE240A83F582EE241283F583E47372A4
:102D5700A1D4073ADAABDE11DA446586B02D2D2D02
:102D67002E2E2F2E2E2F2F2F2F2F2FE58124FCF8DD
:102D7700860508860608860790618BE0E07004FBED
:102D8700FC80047B017C008D828E838FF0EB1233F5
:102D97007EA3EC12337E75820022E58124FCF8863F
:102DA70005088606088607C007C006C0051228184A
:102DB700AC82D005D006D0077B008D828E838FF042
:102DC700EC12337EA3EB12337E75820022E5812459
:102DD700FCF88605088606088607C007C006C005F2
:102DE70012286BAB82AC83D005D006D0078D828EBC
:102DF700838FF0EB12337EA3EC12337E75820022B1
:102E0700E58124FCF88605088606088607C007C002
:102E170006C005122893AB82AC83D005D006D00735
:102E27008D828E838FF0EB12337EA3EC12337E7587
:102E3700820022E58124FCF88605088606088607B5
:102E47008D828E838FF0E412337EA312337E9061DE
:102E570080E0FC30E0218D828E838FF012625FFB71
:102E6700A312625FFC4303018D828E838FF0EB1206
:102E7700337EA3EC12337E906189E0FC30E5218D2F
:102E8700828E838FF012625FFBA312625FFC4303A3
:102E9700028D828E838FF0EB12337EA3EC12337E8A
:102EA70075820022E58124FCF886050886060886D7
:102EB70007C007C006C005122915AB82AC83D00531
:102EC700D006D0078D828E838FF0EB12337EA3EC72
:102ED70012337E75820022E58124FCF88605088678
:102EE70006088607C007C006C0051228F6AB82ACE5
:102EF70083D005D006D0078D828E838FF0EB1233F7
:102F07007EA3EC12337E75820022E58124FCF886CD
:102F170005088606088607C007C006C0051228BB35
:102F2700AB82AC83D005D006D0078D828E838FF01D
:102F3700EB12337EA3EC12337E75820022E58124E7
:102F4700FCF886050886060886078D828E838FF033
:102F5700740B12337EA3E412337E75820022E5815F
:102F670024FCF886050886060886078D828E838FDF
:102F7700F0741A12337EA3E412337E75820022E5C1
:102F87008124FCF8860508860608860790A658E47B
:102F970093FBA3E493FC8D828E838FF0EB12337E39
:102FA700A3EC12337E75820022E58124FCF88605A6
:102FB70008860608860790A628E493FBA3E493FCFB
:102FC7008D828E838FF0EB12337EA3EC12337E75E6
:102FD70082002275820122AE82AF83C374079EE40A
:102FE7009F5003023156EE240A83F582EE240C83A8
:102FF700F583E4730B33768BA056F24530303030CF
:1030070030313031E58124FDF8B6010B08B60007F1
:10301700122D0275820022E58124FDF8E60846702C
:1030270007122D177582002275820222E58124FD81
:10303700F8C3E6940B08E6648094804015E5812484
:10304700FDF8C3741A9674800886F063F08095F0D3
:10305700500475820222E58124FDF886078F8212CB
:10306700283DAF82BFFF047582032275820022E5E7
:103077008124FDF886060886078E828F83122882B0
:1030870075820022E58124FDF886060886078E8270
:103097008F831228AA75820022E58124FDF8E65461
:1030A700FC700408E6600475820222E58124FDF8BD
:1030B700740156FE7F00E4BE0004BF000104FEB4A5
:1030C7000100E433F582122A23E58124FDF8740216
:1030D70056FE7F00E4BE0004BF000104FEB40100F9
:1030E700E433F582122A3C7582002290A658E493B5
:1030F700FEA3E493FFE58124FDF8C3E69E08E6649A
:10310700808FF063F08095F0401F90A628E493FE2F
:10311700A3E493FFE58124FDF8C3EE96EF648008EE
:1031270086F063F08095F0500475820222E58124D1
:10313700FDF886820886831229A175820022E5811F
:1031470024FDF8868208868312290B758200227572
:10315700820122E5812405F581AE82AF83BE090590
:10316700BF000280030231F6E58124F5F8B6080EA8
:1031770008B6000AE58124F7F8E608467005758267
:1031870002806FE58124F7F8E58124FCF9E6F7086A
:1031970009E6F70809E6F7A88118E4F608F6E581D5
:1031A70024FCF8A98119E726FA09E70836FE0886FC
:1031B70007A881187407C396FCE40896FDEC246AF7
:1031C700F582ED3461F583E0FD8A828E838FF012FC
:1031D700337EA8811806B600020806A88118C3E640
:1031E700940808E66480948040B475820080037573
:1031F7008201E58124FBF58122E5812404F581AE76
:1032070082AF83BE0905BF0002800302329BE581BE
:1032170024F6F8B6080E08B6000AE58124F8F8E6A1
:1032270008467005758202806EA88118E4F608F6D4
:10323700A88118E58124FDF9E6246AF708E63461D8
:1032470009F7E58124F8F88602088603088607A8A7
:1032570081187407C396FDE40896FEED2AFAEE3B43
:10326700FB8A828B838FF012625FFAE58124FDF877
:103277008682088683EAF0A8811806B60002080647
:10328700A88118C3E6940808E66480948040A17575
:0E32970082008003758201E58124FCF581220E
:10A628000500F50300E50100D50000C5FFFFB5FDF5
:10A63800FFA5FCFF95FAFF85F8FF75F6FF65F4FFA7
:10A6480055F2FF45F0FF35EEFF25ECFF15EAFF0553
:10A65800E4FF05552AA52A102BC32BEF2BDB2CEB87
:0FA668002CF32C022D172D2B2DDE2F5A31003203
:1032A500AD82AE83AFF0E47B007C00EB2DF8EC3E05
:1032B500F98F02888289838AF012625FF8A312620D
:1032C5005FF9A312625FFAE4C0E0C0E0C0E0888263
:1032D50089838AF01200731581158115816033C0C9
:1032E50007C006C005C004C003E4C0E0C0E0C0E0FC
:1032F500888289838AF012172F158115811581D04F
:1033050003D004D005D006D00774032BFBE43CFCA6
:10331500809922AD82AE83AFF0E47B007C00EB2D7B
:10332500F8EC3EF98F02888289838AF012625FF891
:10333500A312625FF9A312625FFAE4C0E0C0E0C0C5
:10334500E0888289838AF0120073158115811581C1
:103355006026888289838AF0C007C006C005C0043C
:10336500C003121CE6D003D004D005D006D00774E4
:10337500032BFBE43CFC80A62220F71130F61388D2
:1033850083A88220F509F6A8837583002280FEF2C2
:1033950080F5F0220205ADC013858113C082C0837C
:1033A500E5812405F581AF130FE5132403F8A6077E
:1033B500087600087640E51324FCFD7E007F40E595
:1033C500132406F9A813088604E51324FCF88603DC
:1033D5008CF0EBA4F709A7F0E513240604F987049C
:1033E500A81308860374012DFAE43EFE8A828E83B3
:1033F5008FF012625F8BF0A4FBE5132403F87401D0
:1034050026FDE40836FE0886078D828E838FF0122E
:10341500625FFDE51324FCF886078DF0EFA42B2CE5
:10342500F7E5132406F987060987078E828F8385BA
:103435001381D01322AFF474EC5FF5F443FE13222D
:10344500A291E43325E0FFA290E433FEEF4206A209
:1034550094E43325E025E042068E8222E582FF13BF
:103465009200929074025FC31324FF929153070454
:0A347500EF0303543F24FF9294225A
:09A73A00E3A580F0A580000000F9
:1000FF00E4F50FF510F511F512900000F0A3F0A341
:03010F00F0A3F06A
:10347F00AE82AF83C2AF8E048F051EBEFF011FEC5D
:10348F004D60030080F0D2AF22AE82AF83C007C081
:10349F00061234D1AC82AD83D006D007C007C00668
:1034AF00C005C0041234D1AA82AB83D004D005D09A
:1034BF0006D007EAC39CFAEB9DFBC3EA9EEB9F4045
:1034CF00DB22850F8285108322AC11AD127E007F27
:1034DF00008C828D838EF0EF2275C6C0AFC674BF8D
:1034EF005FF5C6E59E20E6FB43C630E5C6B59EFBFD
:1034FF00900000E595F0E4A3F0A3F0A3F0AC967D67
:10350F00007E008E078D068C057C00900000E0F891
:10351F00A3E0F9A3E0FAA3E0FB900000EC28F0EDA4
:10352F0039A3F0EE3AA3F0EF3BA3F0AC977D008DFB
:10353F00078C067D007C00900000E0F8A3E0F9A363
:10354F00E0FAA3E0FB900000EC28F0ED39A3F0EED9
:10355F003AA3F0EF3BA3F0900000E0FCA3E0FDA343
:10356F00E0FEA3E0FF900000ECF074012DA3F0E467
:10357F003EA3F0E43FA3F0900000E0A3E0A3E0FE41
:10358F00A3E08E97900000E0A3E0FDA3E0A3E08D01
:10359F0096900000E0FCA3E0A3E0A3E08C95D2ADF1
:1035AF0022C0E0C082C083C007C006C005C004C0EF
:1035BF0003C002C001C000C0D075D000C2AF9000E0
:1035CF0000E595F0E4A3F0A3F0A3F0AC967D007EA8
:1035DF00008E078D068C057C00900000E0F8A3E0BC
:1035EF00F9A3E0FAA3E0FB900000EC28F0ED39A37B
:1035FF00F0EE3AA3F0EF3BA3F0AC977D008D078C74
:10360F00067D007C00900000E0F8A3E0F9A3E0FA4B
:10361F00A3E0FB900000EC28F0ED39A3F0EE3AA305
:10362F00F0EF3BA3F0900000E0FCA3E0FDA3E0FE71
:10363F00A3E0FF900000ECF074012DA3F0E43EA393
:10364F00F0E43FA3F0900000E0A3E0A3E0FEA3E0CE
:10365F008E97900000E0A3E0FDA3E0A3E08D96908D
:10366F000000E0FCA3E0FDA3E0FEA3E0FF8C957457
:10367F0001250FF50FE43510F510E50F547F6002AB
:10368F00800B74012511F511E43512F51290021516
:10369F007401F0C2C7D2AFD0D0D000D001D002D0C9
:1036AF0003D004D005D006D007D083D082D0E0322B
:1036BF00900254E4F0A3F0900252F0A3F09002565F
:1036CF007430F0900AC9E0FDA3E0FEA3E0FF900381
:1036DF000774302DF0E43EA3F0EFA3F0023AD89038
:1036EF0002567430F022C082C083C0F01236BFE59C
:1036FF008124FAF8C3748096E4089650067B807C88
:10370F0000800AE58124FAF88603088604900307EF
:10371F00E0FAA3E0FEA3E0FFC004C003C003C004AF
:10372F00E58124FAF8E6C0E008E6C0E008E6C0E06C
:10373F008A828E838FF012414AE58124FBF581D076
:10374F0003D004900252EBF0ECA3F08B828C831524
:10375F00811581158122E5812407F581900254E0BE
:10376F00F5F0A3E045F07003023825123A92AE82CD
:10377F00AF8374302EFEE43FFFA8811876300876B1
:10378F0000A88118C3E69E08E664808FF063F0807E
:10379F0095F0507BC006C007900AC9E0FAA3E0FB82
:1037AF00A3E0FFE58124FDF8E58124F8F9E62AF787
:1037BF0008E63B09F709A707900254E58124FBF8B7
:1037CF00E0F6A3E008F6E58124FDF88604088606F6
:1037DF00E58124FBF8EC26FCEE0836FEEC2AFAEE27
:1037EF003BFB8A828B838FF012625FFAE58124F8AC
:1037FF00F886820886830886F0EA12337EE58124F4
:10380F00FDF806B600020806D007D00602379090E2
:10381F000254E4F0A3F0E58124F9F58122C082C0BF
:10382F0083C0F005810581900256E0FCFA7B00A869
:10383F0081187430C39AF6E49B08F6900AC9E0FF2A
:10384F00A3E0FEA3E0FDEC2FFCE43EFFE58124FCAA
:10385F00F88602088603088606A88118E6C0E008E5
:10386F00E6C0E0C004C007C0058A828B838EF012C9
:10387F00414AE58124FBF581900256E0FE7D0074FC
:10388F0030C39EFEE49DFD8E828D83E58124FBF582
:10389F008122C082C083C0F0E5812405F5819002AA
:1038AF0056E0FCFA7B007430C39AFEE49BFF900253
:1038BF0052E58124FCF8E0F6A3E008F68E05E581D9
:1038CF0024FCF8E62DFD08E63FFFC374809DE49FBE
:1038DF0050069000000239AD7430C39AFAE49BFB96
:1038EF00900AC9E0FDA3E0FEA3E0FFEC2DFDE43E4E
:1038FF00FEC002C003C005C006C007E58124F4F86E
:10390F0086820886830886F012414AE58124FBF5FA
:10391F0081900254E0FEA3E0FF900307E0FBA3E0D9
:10392F00FCA3E0FDEE2BFEEF3CFF8D02E58124F9B9
:10393F00F88603088604088605A881181874302BAA
:10394F00F6E43C08F608A605900256E0FD7C00A8B8
:10395F00811818E6C39DFD08E69CFC0886039002BB
:10396F0052E0C0E0A3E0C0E0C006C007C0028D82F5
:10397F008C838BF012414AE58124FBF5819002562E
:10398F00E0FF7E007430C39FFFE49EFE900252E082
:10399F00FCA3E0FDEC2FFCED3EFD8C828D83E581D9
:1039AF0024F8F58122AE82AF83900256E0FD7C00B1
:1039BF00C3ED9EEC64808FF063F08095F0402CC0D7
:1039CF0007C006123AB8AC82AD83D006D0078E027C
:1039DF008F03EA2CFCEB3DFDC374809CE49D400BF0
:1039EF00900256E0C39EF09000012290000022AE9C
:1039FF0082900256E02EF022AE82AF83900252E008
:103A0F00FCA3E0FDC3EC9EED9F50049000002290BC
:103A1F000254E0FAA3E0FB900254EE2AF0EF3BA32E
:103A2F00F0900252ECC39EF0ED9FA3F090000122A4
:103A3F00AF83E582900252F0EFA3F022900254E0A0
:103A4F00FEA3E0FF74302EFEE43FFF900AC9E0FBB7
:103A5F00A3E0FCA3E0FDEE2BFEEF3CFF8D027D000B
:103A6F008E828F838DF022900AC9E0FDA3E0FEA322
:103A7F00E0900256E02DFDE43EFE7F008D828E83A6
:103A8F008FF022900252E0FEA3E08E82F583229007
:103A9F000256E0FF7430C39FFFFE60038E822290B8
:103AAF000254E0FEA3E08E8222123A9EAF827E0085
:103ABF00C007C006123A92AC82AD83D006D007EC95
:103ACF002FFCED3E8C82F583227E007F008E04EF6B
:103ADF00CC25E0CC33FDEC2416F582ED3402F583D2
:103AEF00E4F0A3F00EBE00010FC3EE941AEF648052
:103AFF00948040D97E007F008E04EFCC25E0CC333C
:103B0F00FDEC244AFCED3402FD7B00C007C00674B7
:103B1F0077C0E074A6C0E07480C0E08C828D838B88
:103B2F00F01240BA158115811581D006D0070EBE4F
:103B3F0000010FC3EE9404EF6480948040BA22AD6D
:103B4F0082AE83AFF07434C0E0E4C0E07416C0E01E
:103B5F007402C0E0E4C0E08D828E838FF012414A80
:103B6F00E58124FBF58124FCF88605088606088686
:103B7F00077408C0E0E4C0E0744AC0E07402C0E01B
:103B8F00E4C0E08D828E838FF012414AE58124FBE1
:103B9F00F58122AD82AE83AFF07434C0E0E4C0E0B3
:103BAF00C005C006C00790021675F00012414AE525
:103BBF008124FBF58124FCF8860508860608860714
:103BCF007408C0E0E4C0E0C005C006C00790024A18
:103BDF0075F00012414AE58124FBF58122E58275DB
:103BEF00F002A42416F582740235F0F583E58124E2
:103BFF00FDF8E6F008E6A3F090000122E58275F0EB
:103C0F0002A42416F582740235F0F583E0FEA3E0DA
:103C1F008E82F58322E58224E675F002A4244AFE03
:103C2F00740235F0FF7D00E58124FCF8E6C0E00862
:103C3F00E6C0E008E6C0E08E828F838DF01240BAB6
:103C4F0015811581158190000122E58224E675F01A
:103C5F0002A4244AFE740235F0FF7D008E828F830A
:103C6F008DF0227477C0E074A6C0E07480C0E0903D
:103C7F00024C75F0001240EAAE82AF8315811581B8
:073C8F0015818E828F832254
:03A74300570200BA
:103C960075E40975AF0075E644C2DED2B922AE827C
:103CA600AF83ADE674FB5DF5E68EDC8FDD43E6049F
:103CB60075AF0043E64022C020C0E0C0F0C082C01D
:103CC60083C007C006C005C004C003C002C001C04F
:103CD60000C0D075D000C2B9AFAF74FD5FF5AFAF0D
:103CE600E674BF5FF5E6121419D2B9D0D0D000D071
:103CF60001D002D003D004D005D006D007D083D09F
:103D060082D0F0D0E0D02032C082C083C0F0A8813B
:103D1600181886820886830886F0E58124F9F9E773
:103D260012337EA309E712337EA309E712337EA876
:103D3600811818740326FAE40836FB088604E58120
:103D460024F8F8E6148A828B838CF012337EA881DD
:103D56001818740426FDE40836FE0886078D828E40
:103D6600838FF0E412337EA8811818740526FDE4CB
:103D76000836FE0886078D828E838FF0E412337E26
:103D860015811581158122C082C083C0F0E581248A
:103D960008F58124F6F8740426FAE40836FB08864A
:103DA600048A828B838CF0E58124F9F812625FF62F
:103DB600E58124F9F8E58124FAF9E6F7097700E5C3
:103DC6008124F6F8740526FDE40836FE0886078D7C
:103DD600828E838FF012625FFD7F00E58124FAF800
:103DE600E6C39DFD08E69FFFE58124F6F8E58124FC
:103DF600FCF9740326F7E4083609F70809E6F7E53F
:103E06008124FCF886820886830886F012625FFEAB
:103E1600A88118A606087600A88118E6520508E6C5
:103E26005207A88118E6B5050708E6B5070280021D
:103E360080059000008060E58124F6F88682088679
:103E4600830886F012625FFDA312625FFEA3126210
:103E56005FFFE58124F9F8E62DFDE43EFE8D828EB6
:103E6600838FF0E58124F3F8E612337E8A828B8312
:103E76008CF012625FFF0FE58124FCF886820886CB
:103E8600830886F012625FFE52078A828B838CF06B
:103E9600EF12337E900001E58124F5F58122C08280
:103EA600C083C0F0058105810581E58124FBF87496
:103EB6000426FAE40836FB0886048A828B838CF093
:103EC60012625FFA7C00E58124FBF8A98119197456
:103ED6000526F7E4083609F70809E6F7A881181851
:103EE60086820886830886F012625FFBFE7F00EA00
:103EF600C39EFAEC9FFCE58124FBF8740326FDE4DF
:103F06000836FE0886078D828E838FF012625FFF69
:103F1600FD7E00ED5202EE5204C3E49A74808CF0EA
:103F260063F08095F05047E58124FBF88682088689
:103F3600830886F012625FFCA312625FFDA3126221
:103F46005FFEEB2CFCE43DFD8C828D838EF01262CD
:103F56005FFCEB045207A88118188682088683083E
:103F660086F0EF12337E7F008C828F83800390FF72
:103F7600FFE58124FAF58122AD82AE83AFF07403AA
:103F86002DFDE43EFE8D828E838FF012625FFD7FF3
:103F9600000DBD00010F8D828F8322AD82AE83AFEF
:103FA600F074042DFAE43EFB8F048A828B838CF036
:103FB60012625FFA7C0074052DF8E43EF98F0388DF
:103FC6008289838BF012625FF87B00EAC398FAEC71
:103FD6009BFC74032DFDE43EFE8D828E838FF012D2
:0E3FE600625F7F005202EF52048A828C8322B7
:1000D6007800E84400600A7900759300E4F309D8D3
:1000E600FC786CE8440A600C790B900004E4F0A3F9
:0400F600D8FCD9FA5F
:103FF400C013858113058105810581AD82AE83AF30
:10400400F0E51324F9F8E608467006900000024033
:10401400B4E51324FBF88602088603088604E51336
:1040240024F9F8A91309E6F70809E6F7A81308160E
:10403400B6FF020816A81308E60846604C8D828E67
:10404400838FF0E5132403F812625FF6E51324036B
:10405400F8E66035C005C006C0078A828B838CF001
:1040640012625FFFE5132403F8E6B507028008D067
:1040740007D006D0058012D007D006D0050DBD00AC
:10408400010E0ABA00A60B80A38D828E838FF012D4
:10409400625FFD3395E0FF8A828B838CF012625F4E
:1040A400FA3395E0FEEDC39AFDEF9EFF8D828F8378
:1040B400851381D01322AD82AE83AFF0E58124FC59
:1040C400F886020886030886047402C0E0E4C0E0AF
:1040D400C002C003C0048D828E838FF012414AE572
:1040E4008124FBF58122AD82AE83AFF0E58124FC0F
:1040F400F886020886030886047402C0E0E4C0E07F
:10410400C002C003C0048D828E838FF012858AAEF4
:1041140082AF83E58124FBF581E4BE0004BF000186
:1041240004FE3395E08E82F58322AD82AE83AFF038
:10413400C005C006C00790030A75F0001240BA1506
:06414400811581158122A6
:02A677000000E1
:10414A00C013E581F5132408F581AD82AE83AFF083
:10415A00E5132406F8A60508A60608A607E513240B
:10416A00FBF8A91309E6F70809E6F70809E6F7E5EF
:10417A001324F9F8E5132404F9E6F70809E6F7E544
:10418A00132404F88603088604E5132404F816B6F3
:10419A00FF020816EB4C6028A8130886820886835B
:1041AA000886F012625FFCA31818A68208A6838DFF
:1041BA00828E838FF0EC12337EA3AD82AE8380BFF2
:1041CA00E5132406F886820886830886F08513811B
:0341DA00D01322DD
:050112009003DCE4F0A5
:1041DD00C082C083C0F0900AEDE0FAA3E0FBA3E03B
:1041ED00FC8A828B838CF0125C30AA82AB83ACF09C
:1041FD00EA4B606174032AFDE43BFE8C07C004C0EA
:10420D0003C002E58124FBF8E6C0E008E6C0E00843
:10421D00E6C0E08D828E838FF01240EAAE82AF83CE
:10422D00158115811581D002D003D004EE4F6008A1
:10423D008A828B838CF080238A058B068C078D8276
:10424D008E838FF0126235AD82AE83AFF08D028E0C
:10425D00038F04809B90000075F00015811581156A
:10426D00812290A6A8E493FEA3E493FF8E828F8310
:10427D00120071AE82AF838E048F05EE4F70037CFA
:10428D0010FD8C828D8322058105810581AD82AE65
:10429D0083AFF0ED4E700302432F74202DFAE43EF0
:1042AD00FB8F048A828B838CF012625FFAA31262F9
:1042BD005FFBA312625FFC8A828B838CF0C007C008
:1042CD0006C005125C30AA82AB83ACF0D005D006D7
:1042DD00D007A8811818A60208A60308A604A8816D
:1042ED001818E60846603B90A6A0E493FBA3E49360
:1042FD00FCC004C003E58124FCF8E6C0E008E6C07C
:10430D00E008E6C0E0C005C006C00712431D8008E6
:10431D00C003C0049045BD22E58124FAF581D00388
:10432D00D00415811581158122C082C083C0F0E5AE
:10433D00812405F58124F4F8E6084670030245B69C
:10434D00E58124F4F8E58124FCF9E6F70809E6F7A0
:10435D000809E6F7E58124F9F8742026FDE408360E
:10436D00FE0886078D828E838FF012625FFAA3128C
:10437D00625FFBA312625FFCC007C006C005E5814A
:10438D0024F9F8E6C0E008E6C0E008E6C0E08A825D
:10439D008B838CF0125FE6158115811581D005D0C8
:1043AD0006D007E58124F4F8E58124FCF9E6F70849
:1043BD0009E6F70809E6F7E58124FCF8740326FA07
:1043CD00E40836FB0886048A828B838CF012625FC8
:1043DD00FAA312625FFBA312625FFC8A828B838C4D
:1043ED00F0C007C006C00512768ED005D006D007E6
:1043FD00E58124FCF8740626FAE40836FB088604E9
:10440D008A828B838CF012625FFAA312625FFBA328
:10441D0012625FFCC007C006C005C002C003C00425
:10442D00900AE075F0001270FB158115811581D091
:10443D0005D006D007E58124F4F886020886030826
:10444D008604C007C006C005C002C003C004900AA0
:10445D00D675F0001270FB158115811581D005D030
:10446D0006D0078D828E838FF012625FFDA31262DC
:10447D005FFEA312625FFF8D828E838FF0125C3020
:10448D00AD82AE83AFF0ED4E700302454EE5812453
:10449D00F9F8741A26FDE40836FE0886078D828E1B
:1044AD00838FF0E412337EE58124F9F8741B26FD29
:1044BD00E40836FE0886078D828E838FF0E4123372
:1044CD007EE58124F9F8741C26FDE40836FE088685
:1044DD00078D828E838FF0E412337EE58124F2F80E
:1044ED00E608467009A88118E4F608F6800B12421A
:1044FD006FA88118A68208A683E58124F9F88603A2
:10450D00088604088605E58124F9F8740526FAE481
:10451D000836FE088607C003C004C0057494C0E0C9
:10452D007442C0E0E58124FAF8E6C0E008E6C0E098
:10453D008A828E838FF012556BE58124F9F5818087
:10454D0068E58124F9F8740526FDE40836FE088631
:10455D00078D828E838FF01257FEE58124F9F88640
:10456D0005088606088607900AEDE0FAA3E0FBA38E
:10457D00E0FCC005C006C0078A828B838CF0125FF9
:10458D00E6158115811581E58124F9F886050886E2
:10459D0006088607C005C006C007900ACC75F00056
:1045AD001270FB158115811581E58124F8F58122A5
:1045BD00E5812416F581AD82AE83AFF0E58124ED62
:1045CD00F8A60508A60608A607E58124EDF8E60875
:1045DD00467003024A99E58124E7F8B6000608B64D
:1045ED000002802DE58124E7F8B6010608B6000229
:1045FD00804CE58124E7F8B6020608B6000280116A
:10460D00E58124E7F8B6030608B60002805D024690
:10461D00A3E58124EDF8741A26FAE40836FB088622
:10462D00048A828B838CF012625FFFE58124E5F8AA
:10463D00E62FFE8A828B838CF012337E8058E581C3
:10464D0024EDF8741B26FAE40836FB0886048A82EA
:10465D008B838CF012625FFFE58124E5F8E62FFE77
:10466D008A828B838CF012337E802BE58124EDF8CA
:10467D00741C26FAE40836FB0886048A828B838C28
:10468D00F012625FFFE58124E5F8E62FFE8A828B4A
:10469D00838CF012337EE58124EDF8742026FAE444
:1046AD000836FB0886048A828B838CF012625FFACF
:1046BD00A312625FFBA312625FFC8A828B838CF074
:1046CD00125C30AA82AB83ACF0E58124F0F8A6022F
:1046DD0008A60308A604E58124F0F8E4C0E0C0E0D4
:1046ED00C0E086820886830886F012007315811556
:1046FD008115817003024784E58124F0F874032647
:10470D00FDE40836FE0886078D828E838FF01262D7
:10471D005FFDA312625FFEA312625FFF740AC0E029
:10472D008D828E838FF0127869AE82AF831581757D
:10473D00820AC007C006123C0BAC82AD83D006D0F6
:10474D0007EEB50406EFB50502802CE58124F0F8DF
:10475D0086020886030886048A828B838CF0126297
:10476D0035AA82AB83ACF0E58124F0F8A60208A649
:10477D000308A6040246E3E58124F0F8E608467036
:10478D0003024A99E58124F0F8740626FAE4083606
:10479D00FB0886048A828B838CF012625FFAA31267
:1047AD00625FFBA312625FFCE58124FAF8A60208A2
:1047BD00A60308A604E58124FAF8E608467003026C
:1047CD004A99E58124FAF886820886830886F0A93D
:1047DD00811912625FF7A312625F09F7E58124FA6E
:1047ED00F8740226FDE40836FE0886078D828E8356
:1047FD008FF0E58124F3F812625FF6A312625F0871
:10480D00F6A312625F08F6E58124EDF8741A26FD11
:10481D00E40836FE0886078D828E838FF012625F64
:10482D00FCE58124F8F8A604087600E58124E7F874
:10483D00B6010608B600028011E58124E7F8B6023C
:10484D000608B600028003024A2EC007C006C00546
:10485D0012426FAC82AB83D005D006D007E5812420
:10486D00FDF8A60408A603E58124F8F88604088659
:10487D0003E58124F8F8C374039674800886F06309
:10488D00F08095F050047C037B008CF005F0E58101
:10489D0024F6F87601087600188009E625E0F6087A
:1048AD00E633F618D5F0F4C007C006C0051251B5B1
:1048BD00C8E58124E8C8A68208A683D005D006D015
:1048CD0007E58124F6F88603088604C007C006C0F4
:1048DD0005E58124FAF8E6C0E008E6C0E08B828C9D
:1048ED008312339CAB82AC8315811581C003C00448
:1048FD00E58124E6F8868208868312677AAB82AC5E
:10490D008315811581D005D006D007E58124FDF8EA
:10491D00EB26F6EC0836F68D828E838FF012625FF1
:10492D00FDE58124FAF8740526FCE40836FE0886B8
:10493D00078C828E838FF012625FFCC3ED9C5074E6
:10494D00E58124EDF88605088606088607E58124AD
:10495D00EDF8740526FAE40836FB088604C005C098
:10496D0006C0077494C0E07442C0E0E58124F8F8F5
:10497D00E6C0E008E6C0E08A828B838CF012556BAE
:10498D00E58124F9F58124F0F8740326FDE4083659
:10499D00FE0886078D828E838FF012625FFDA31253
:1049AD00625FFEA312625FFF8D828E838FF01275A0
:1049BD00C7024A99E58124E7F8E6C0E008E6C0E0C1
:1049CD00E58124EEF8E6C0E008E6C0E008E6C0E0C8
:1049DD00E58124E8F886820886830886F01243363E
:1049ED00E58124FBF58124F8F8E6C0E008E6C0E097
:1049FD00E58124E5F8E6C0E008E6C0E0E58124EFB6
:104A0D00F8E6C0E008E6C0E008E6C0E0E58124F87D
:104A1D00F8868208868312516FE58124F9F581802D
:104A2D006BE58124E7F8E6C0E008E6C0E0E5812407
:104A3D00EEF8E6C0E008E6C0E008E6C0E0E5812457
:104A4D00E8F886820886830886F0124336E58124CD
:104A5D00FBF58124F8F8E6C0E008E6C0E0E5812426
:104A6D00E5F8E6C0E008E6C0E0E58124EFF8E6C031
:104A7D00E008E6C0E008E6C0E0E58124F8F88682AB
:104A8D0008868312516FE58124F9F581E58124EAC9
:104A9D00F58122C082C083E5812412F58175821BC8
:104AAD00123C59AB82AC83ADF0E58124F8F8A60336
:104ABD0008A60408A6059003DCE070169003DC74CC
:104ACD0001F01251B5E5828583F09003DDF0E5F03C
:104ADD00A3F09003DDE0FAA3E0FF9003DDE0F5F035
:104AED00A3E045F0700B9003DD74012AF0E43FA3C1
:104AFD00F09003DDE0FEA3E0FF9003DD74012EF0E6
:104B0D00E43FA3F0C006C00775820A123BEC158185
:104B1D001581E58124F8F886820886830886F012CF
:104B2D0041DDAA82AE83AFF0E58124FBF8A6020831
:104B3D00A60608A607E58124FBF8E60846600302F1
:104B4D004C71900ACC75F000126FAFAB82AC83AD97
:104B5D00F0E58124FBF8A60308A60408A605E58167
:104B6D0024FBF8E608467003024C71E58124FBF83E
:104B7D00740326FBE40836FC088605E58124F8F865
:104B8D00E6C0E008E6C0E008E6C0E08B828C838DCD
:104B9D00F01240BA158115811581E58124FBF87459
:104BAD001A26FBE40836FC0886058B828C838DF073
:104BBD00E412337EE58124FBF8741B26FBE40836F2
:104BCD00FC0886058B828C838DF0E412337EE581A3
:104BDD0024FBF8741C26FBE40836FC0886058B8242
:104BED008C838DF0E412337EE58124FBF87420264E
:104BFD00FBE40836FC088605E58124FBF8741D26C8
:104C0D00FAE40836FE0886078B828C838DF0EA1253
:104C1D00337EA3EE12337EA3EF12337E8A828E8310
:104C2D008FF0E412337EA312337EA312337E8A8279
:104C3D008E838FF0125C24E58124FBF886020886B2
:104C4D0006088607900AEDE0FBA3E0FCA3E0FDC09B
:104C5D0002C006C0078B828C838DF0125CD3158148
:104C6D0015811581E58124FBF8E608467003025095
:104C7D00BCE58124FBF8742026FDE40836FE088689
:104C8D00078D828E838FF012625FFAA312625FFB33
:104C9D00A312625FFC8A828B838CF0C007C006C0B2
:104CAD000512613EAB82AC83D005D006D007C3EBB5
:104CBD009408EC6480948040030250BC900AD67531
:104CCD00F000C007C006C005126FAFAA82AB83AC5F
:104CDD00F0D005D006D007E58124F5F8A60208A688
:104CED000308A604E58124F5F8E608467003025092
:104CFD0047E58124F5F8E58124EFF9740626F7E4FC
:104D0D00083609F70809E6F7900AE075F000C007C4
:104D1D00C006C005126FAFAA82AB83ACF0D005D030
:104D2D0006D007E58124EFF886820886830886F091
:104D3D00EA12337EA3EB12337EA3EC12337EEA4BE1
:104D4D007003025019E58124F5F8E58124F2F97418
:104D5D000326F7E4083609F70809E6F7C007C00689
:104D6D00C005127480AA82AB83ACF0D005D006D0FA
:104D7D0007E58124F2F886820886830886F0EA1218
:104D8D00337EA3EB12337EA3EC12337EEA4B70031A
:104D9D00024FDDE58124EFF886820886830886F0D0
:104DAD0012625FFAA312625FFBA312625FFCA8811D
:104DBD001818A60208A60308A604758209C007C024
:104DCD0006C005123C0BE5828583F0D005D006D0D8
:104DDD000745F07029C005C006C007E58124FBF822
:104DED00740526FDE40836FE0886078D828E838FB6
:104DFD00F0740312337ED007D006D005803EC00577
:104E0D00C006C007E58124FBF8740526FAE40836D0
:104E1D00FB088604758209C005C004C003C00212D8
:104E2D003C0BAE82D002D003D004D0058A828B8396
:104E3D008CF0EE12337ED007D006D005A88118185D
:104E4D0086820886830886F0E58124EDF9E7123322
:104E5D007EA309E712337EA8811818740226FAE49E
:104E6D000836FB0886048A828B838CF0E58124E862
:104E7D00F8E612337EA308E612337EA308E612335A
:104E8D007E75820DC007C006C005123C0BAB82AC0F
:104E9D0083D005D006D007BB0158BC0055E5812451
:104EAD00F5F8E58124F2F9E6F70809E6F70809E6D1
:104EBD00F78D828E838FF012625FFAA312625FFB11
:104ECD00A312625FFCC007C006C005E58124EFF8A0
:104EDD00E6C0E008E6C0E008E6C0E08A828B838C7D
:104EED00F0125DAA158115811581D005D006D00768
:104EFD008053E58124F5F8E58124F2F9E6F70809F8
:104F0D00E6F70809E6F78D828E838FF012625FFA5D
:104F1D00A312625FFBA312625FFCC007C006C0054F
:104F2D00E58124EFF8E6C0E008E6C0E008E6C0E061
:104F3D008A828B838CF0125CD3158115811581D0FB
:104F4D0005D006D0078D828E838FF012625FFAA393
:104F5D0012625FFBA312625FFC8A828B838CF0125C
:104F6D005C30AF82AE83ADF0E58124F5F8860208A2
:104F7D008603088604C002C003C0048F828E838D11
:104F8D00F01200731581158115816002803FE58156
:104F9D0024FBF88607088606088605E58124FBF8BC
:104FAD00740526FAE40836FB088604C007C006C05F
:104FBD00057494C0E07442C0E0E4C0E0C0E08A82B1
:104FCD008B838CF012556BE58124F9F5810250ED40
:104FDD00E58124EFF886820886830886F012625FE9
:104FED00FAA312625FFBA312625FFCC007C006C08A
:104FFD0005C002C003C004900AE075F0001270FBFA
:10500D00158115811581D005D006D007E58124F5D0
:10501D00F88602088603088604C007C006C005C0CE
:10502D0002C003C004900AD675F0001270FB158102
:10503D0015811581D005D006D0078D828E838FF016
:10504D0012625FFDA312625FFEA312625FFF8D828B
:10505D008E838FF012613EE5828583F045F0704FAF
:10506D00E58124FBF88602088606088607900AED7E
:10507D00E0FBA3E0FCA3E0FDC002C006C0078B82ED
:10508D008C838DF0125FE6158115811581E58124E4
:10509D00FBF88602088606088607C002C006C00710
:1050AD00900ACC75F0001270FB1581158115817475
:1050BD0001C0E0E4C0E07404C0E0E4C0E0E5812498
:1050CD00E4F8E6C0E008E6C0E008E6C0E0E58124CB
:1050DD00E6F8868208868312516FE58124F9F58101
:1050ED00E58124ECF5812290A6B9E493FEA3E49327
:1050FD00FFC007C0068E828F83120071D006D007C5
:10510D002290A6A4E493FEA3E493FF8E828F8302E4
:10511D000071AE82AF8390A6A6E493FCA3E493FD49
:10512D001251328009C004C0058E828F83222290D5
:10513D00A6A8E493FEA3E493FF4E60078E828F83AF
:10514D0002007190000022900AD675F000126EBB1D
:10515D00900AE075F000126EBB900ACC75F000025B
:02516D006EBB17
:10A6790088A6805451A04AF4500E511F513C5143B1
:04A68900534D4100EC
:10A74600230002000C03000E030009000800540356
:10A75600005C030006000800A40300AC0300000030
:04A7660000EA0A00FB
:02007100E47336
:10516F00AE82AF83EE4F603DC007C006E58124F6E7
:10517F00F8E6C0E008E6C0E0E58124F6F8E6C0E016
:10518F0008E6C0E01251988012C006C007E58124DE
:10519F00F2F886820886830886F022E58124FCF5E2
:1051AF0081D006D0072243B404AFBD7E00ACBC7DD6
:1051BF0000EC4206ED42078E828F8322AE82AF83D0
:1051CF00ADB474F35DF5B49061897408F075E1E3E3
:1051DF00906199E0FD30E0F87C007D00C3EC941005
:1051EF00ED64809480400AEE4F6006BE032ABF80B4
:1051FF00278E02EFCA25E0CA33FB9061A7E0F9536F
:10520F00010189007900E84AFEE94BCE25E0CE3353
:10521F00FF0CBC00C70D80C48FBC8EBC75E1EF22A4
:10522F00E5812408F581AD82AE83AFF07C01126277
:10523F005FFAA312625FFBBA0005BB0002800CBAD3
:10524F004A06BB0003025348025523C005C006C0DF
:10525F0007900AF3E0FAA3E0FBA3E0FF8A828B83B7
:10526F008FF0125C30AD82AE83AFF0E58124F8F899
:10527F00A60508A60608A607D007D006D005E58123
:10528F0024FBF8E4C0E0C0E0C0E086820886830813
:10529F0086F012007315811581158170030253304A
:1052AF00C005C006C007E58124F8F8740326FAE4A8
:1052BF000836FB08860774022AFAE43BFB8A828BC6
:1052CF00838FF012625FFAA312625FFBE58124F80D
:1052DF00F8740326FDE40836FE088607C007C006EB
:1052EF00C005C002C0038D828E838FF0120F291567
:1052FF00811581D005D006D007E58124F8F8868284
:10530F000886830886F012625F1818F6A312625F90
:10531F0008F6A312625F08F6D007D006D005025236
:10532F008D9003DF7401F07C008D828E838FF0747B
:10533F004A12337EA3E412337EEC600AE58124F631
:10534F00F8B688028006758201025534900AF3E0A0
:10535F00FAA3E0FBA3E0FC8A828B838CF0C007C02A
:10536F0006C005125C30AA82AB83ACF0D005D00624
:10537F00D007E58124FBF8A60208A60308A604E5DA
:10538F008124FBF8E4C0E0C0E0C0E0868208868399
:10539F000886F01200731581158115816089C0058B
:1053AF00C006C007E58124F8F8740326FAE408362E
:1053BF00FB088604E58124F0F88605088606088632
:1053CF0007C005C006C0078A828B838CF01200735A
:1053DF001581158115816009D007D006D0050255BA
:1053EF0001E58124F8F88602088603088604900AEE
:1053FF00F3E0FDA3E0FEA3E0FFC007C006C005C0B9
:10540F0002C003C0048D828E838FF0125FE6158178
:10541F0015811581D005D006D007900AB4E0FDA301
:10542F00E0FEA3E0FFE58124FBF8A60508A6060829
:10543F00A607E58124F8F8740D26FDE40836FE086A
:10544F0086078D828E838FF012625FFDA312625FDB
:10545F00FEA312625FFF900AB4EDF0EEA3F0EFA38C
:10546F00F0E58124F8F8741026FDE40836FE08866E
:10547F00078D828E838FF0E58124F6F812625FF636
:10548F00A312625F08F6D007D006D005E58124F994
:10549F00F8E608466048E58124FBF8741226FAE422
:1054AF000836FB0886048A828B838CF012625FFABF
:1054BF00A312625FFBA312625FFCC007C006C005A8
:1054CF001254D48013E58124F4F8E6C0E008E6C056
:1054DF00E08A828B838CF022D005D006D007A8817A
:1054EF001818900AB4E6F008E6A3F008E6A3F00255
:1054FF005336E58124FBF886820886830886F012EE
:10550F00625F1818F6A312625F08F6A312625F08B3
:10551F00F602538E8D828E838FF0E412337EA312A8
:10552F00337E758203E58124F8F581229003DFE451
:10553F00F0900AF3E0FDA3E0FEA3E0FF8D828E83DF
:10554F008FF0125C24E4C0E0C0E0C0E0900AF67572
:10555F00F00012172F15811581158122AD82AE83B0
:10556F00AFF0E58124FBF886020886037C80900A61
:10557F00B4E0C0E0A3E0C0E0A3E0C0E0E58124F523
:10558F00F8E6C0E008E6C0E008E6C0E0C002C003ED
:10559F00C004E58124F4F8E6C0E008E6C0E08D829F
:1055AF008E838FF01255BDE58124F5F5812205819B
:1055BF0005810581AD82AE83AFF0740D2DFAE43E07
:1055CF00FB8F048A828B838CF0E58124F2F8E6123C
:1055DF00337EA308E612337EA308E612337E7410DF
:1055EF002DFAE43EFB8F048A828B838CF0E58124B5
:1055FF00F8F8E612337EA308E612337E74122DFA02
:10560F00E43EFB8F048A828B838CF0E58124F5F8CE
:10561F00E612337EA308E612337EA308E612337E2A
:10562F009003DFE06065900AB4E0FAA3E0FBA3E02B
:10563F00FCA8811818A60208A60308A604900AB4AD
:10564F0074F6F0740AA3F0E4A3F074032DFAE43EA9
:10565F00FB8F04C007C006C005E58124F7F8E6C03C
:10566F00E008E6C0E08A828B838CF0120F29158147
:10567F001581D005D006D007A8811818900AB4E676
:10568F00F008E6A3F008E6A3F0802574032DFAE4F2
:10569F003EFB8F0474022AFAE43BFB8A828B838CD5
:1056AF00F0E58124FAF8E612337EA308E612337E82
:1056BF00900AF3E0FAA3E0FBA3E0FCC005C006C02C
:1056CF00078A828B838CF0125CD31581158115812B
:1056DF0015811581158122058105810581AD82AE68
:1056EF0083AFF09003DFE06053900AB4E0FAA3E0D9
:1056FF00FBA3E0FCA8811818A60208A60308A604BD
:10570F00900AB474F6F0740AA3F0E4A3F074032DB6
:10571F00FAE43EFB8F048A828B838CF0C007C006AD
:10572F00C005120F99D005D006D007A88118189080
:10573F000AB4E6F008E6A3F008E6A3F0900AF3E057
:10574F00FAA3E0FBA3E0FCC005C006C0078A828B6A
:10575F00838CF0125CD3158115811581158115810C
:10576F00158122058105810581AD82AE83AFF09051
:10577F0003DFE06053900AB4E0FAA3E0FBA3E0FC80
:10578F00A8811818A60208A60308A604900AB474E4
:10579F00F6F0740AA3F0E4A3F074032DFAE43EFBD1
:1057AF008F048A828B838CF0C007C006C005120F4E
:1057BF00B7D005D006D007A8811818900AB4E6F024
:1057CF0008E6A3F008E6A3F0900AF3E0FAA3E0FBE3
:1057DF00A3E0FCC005C006C0078A828B838CF01241
:1057EF005CD31581158115811581158115812205D0
:1057FF008105810581AD82AE83AFF09003DFE0605C
:10580F002074032DFAE43EFB8F048A828B838CF085
:10581F00C007C006C0051210F6D005D006D007800D
:10582F005774032DFAE43EFB8F04C005C006C00772
:10583F00E58124FBF874042AF6E43B08F608A60475
:10584F00E58124FBF886820886830886F0E412330C
:10585F007EA312337EA312337E74072AFAE43BFB36
:10586F008A828B838CF0E412337EA312337EA312D1
:10587F00337ED007D006D005900AF3E0FAA3E0FB01
:10588F00A3E0FCC005C006C0078A828B838CF01290
:10589F005FE615811581158115811581158122AD61
:1058AF0082AE83AFF09003DFE0601274032DFAE451
:1058BF003EFB8F048A828B838CF002101F900AF3B9
:1058CF00E0FAA3E0FBA3E0FC8A828B838CF0C00795
:1058DF00C006C005125C30AA82AB83ACF0D005D0F5
:1058EF0006D007E4C0E0C0E0C0E08A828B838CF072
:1058FF001200731581158115816031C005C006C076
:10590F00078A828B838CF0120073158115811581A4
:10591F007004900000228A828B838CF012625FFAEF
:10592F00A312625FFBA312625FFC80B7900001229B
:0FA76A00000000F00A000000002F520000000065
