:020000040000FA
:0400000002509132E7
:01000B0032C2
:030013000206B230
:01001B0032B2
:0100230032AA
:03002B00021F1E93
:01003300329A
:01003B003292
:01004300328A
:03004B0002205838
:01005300327A
:01005B003272
:01006300326A
:20006B000207E60202DBC082C083E5812404F5817C007D00C374C89C74808DF063F08095B1
:20008B00F0500B7490C39CFA74019DFB80048C028D03E58124FBF886078F82C007C005C097
:2000AB0004C003C00278EB79837A04121D71D002D003D004D005D007E58124FDF8E4F608A9
:2000CB00F6E58124FDF8C3E69A08E664808BF063F08095F0501DE58124FDF8A98119E6F7AC
:2000EB000809E6F7E58124FDF8740126F6E40836F680CE8F82C005C004C003C00278017980
:20010B00847A04121D71D002D003D004D005E58124FDF8E4F608F674C8C39AFEE49BFFE593
:20012B008124FDF8C3E69E08E664808FF063F08095F0501DE58124FDF8A98119E6F708090D
:20014B00E6F7E58124FDF8740126F6E40836F680CE0CBC00010DC3EC9490ED648094815062
:20016B000302007FE58124FAF58122E5812408F5817E0C7F78E58124F9FD7C07EC2DF98EA8
:20018B00828F83E0FBA3AE82AF83A7031CEC30E7EB74072DF987077E0074062DF987048CC8
:2001AB0003E44207EB42068D047B007A40C007C006C0057408C0E0E4C0E0C004C003C002D0
:2001CB009002CE75F00078C179567A00121D71E58124FBF581907DA1E493FAA3E493FBA35B
:2001EB00E493FCC004C003C00274CDC0E074ABC0E0C002C003C004900002D002D001D0004A
:20020B00121D7115811581D002D003D004D005D006D007907DA1E493FAA3E493FBA3E493BE
:20022B00FCC005C004C003C002C007C006C002C003C004900003D002D001D000121D711518
:20024B00811581D002D003D004D005907DA1E493FCA3E493FEA3E493FFC007C006C005C0CA
:20026B00047419C0E0E4C0E0C004C006C007900001D002D001D000121D7115811581D004C9
:20028B00D005D006D007907DA7E493FCA3E493FEA3E493FF7B007A40C007C006C004740877
:2002AB00C0E0E4C0E0C005C003C002C004C006C007900009D002D001D000121D71E581243E
:2002CB00FBF581D004D006D007E58124F8F581227851791E7A00121D71786B79A97A0412F8
:2002EB001D71780079807A01121D71789179837A04121D71758207780179847A04121D7124
:20030B00900001120071786979977A03121D71784B799A7A04121D7190842F75F004789FF9
:20032B0079067A00121D71786079867A04121D71900002120071907B4675F08078A0798BBD
:20034B007A04121D71907B6175F08078A0798B7A04121D7190624AE0FFBF8D028042BF956A
:20036B0002802CBFA5028005BFB5448011907B7275F08078A0798B7A04121D718031907B38
:20038B007975F08078A0798B7A04121D718020907B8075F08078A0798B7A04121D71800FE1
:2003AB00907B8775F08078A0798B7A04121D71907B8E75F08078A0798B7A04121D719062D7
:2003CB0077E0FF0F8F8278D3798B7A04121D71907B9675F08078A0798B7A04121D71784FA8
:2003EB0079837A04121D71900000789579DB7A01121D71E4C0E0C0E0C0E090117C75F00086
:20040B00783D79917A03121D7115811581158178A379DB7A03121D717877798C7A04121D06
:20042B0071120176E4C0E0C0E0C0E09011D075F000783D79917A03121D711581158115817F
:20044B00907CA2E493FDA3E493FEA3E493FFC007C006C0057401C0E0E4C0E0C005C006C008
:20046B0007900081D002D001D000121D7115811581D005D006D007907C92E493FDA3E4936C
:20048B00FEA3E493FFC007C006C0057401C0E0E4C0E0C005C006C007900081D002D001D079
:2004AB0000121D7115811581D005D006D0077408C0E0E4C0E074CEC0E07402C0E0E4C0E0C7
:2004CB0090065B75F00078C179567A00121D71E58124FBF581785379957A04121D71E4C003
:2004EB00E0C0E0C0E090115F75F000783D79917A03121D71158115811581E4C0E0C0E0C0EA
:20050B00E090121175F000783D79917A03121D711581158115817821798D7A04121D7190ED
:20052B007B9F75F080785379947A04121D71785579837A04121D71900004120071785B7971
:20054B00837A04121D71900F4AE0E0605778B579A47A03121D71E5828583F045F06040787C
:20056B00EE79A47A03121D71AE82AF83C007C0067836791E7A00121D71AC82AD83D006D0F6
:20058B0007EEC39CFEEF9DFF1EBEFF011FC374FF9E747F9F5009788479A17A03121D7190F6
:2005AB000F4AE4F078FE79997A03121D71AE82AF83EE7089907D95E493FDA3E493FEA3E460
:2005CB0093FFC007C006C005C005C006C007D002D001D000121D71858208858309D005D002
:2005EB0006D007E50845097003020548781679BA7A03121D71907D8CE493FDA3E493FEA370
:20060B00E493FFC007C006C00578EB79BD7A03121D71AA82AB83ACF0D005D006D007C00712
:20062B00C006C0057480C0E0E4C0E0C005C006C0078A828B838CF0D002D001D000121D7111
:20064B0085820885830915811581D005D006D007E50845097003020548850882850983782C
:20066B00DD79BD7A03121D71907E2FE493FDA3E493FEA3E493FFC007C006C005C005C00680
:20068B00C007D002D001D000121D71D005D006D007020548AFF0AE83E58290004DF0EEA30F
:2006AB00F0EFA3F0021D83C020C0E0C0F0C082C083C007C006C005C004C003C002C001C04A
:2006CB0000C0D075D000C28B90004DE0FDA3E0FEA3E0FFED4E601A90004DE0C0E0A3E0C0DB
:1506EB00E0A3E0C0E085C182D002D001D000121D71D0D0D000AC
:20070000D001D002D003D004D005D006D007D083D082D0F0D0E0D0203220811B90000A750B
:20072000F04078EF798D7A04121D71AE82AF83EE4F60047F0080027F01EF3395E0FE8F82D4
:200740008E83021D83AE82AF83BE8105BF00028006BE8210BF000D740255ABFF7E008F82D9
:200760008E838003900000021D83AE82AF83BE8005BF00028008BE8167BF0064801D438F8D
:2007800002AF8C74FE5FF58CAFF374FD5FF5F3AFFD74FD5FF5FD9000018048E58124FCF82B
:2007A000E60846602DE5AB20E131E4C0E0C0E090000A75F0407830798D7A04121D711581F1
:2007C0001581AF8974FD5FF589C2C543AB02D2BD8009AFAB74FD5FF5ABC2BD900001800311
:2007E000900000021D83C020C0E0C0F0C082C083C007C006C005C004C003C002C001C000F6
:20080000C0D075D000C2AFE58930E14190000A75F04078EF798D7A04121D71E5828583F0A9
:2008200045F060297410C0E0E4C0E090000A75F0407830798D7A04121D7115811581907C0F
:200840009C75F08078A279877A04121D71AF8974FD5FF589C2C5D2AFD0D0D000D001D0023E
:20086000D003D004D005D006D007D083D082D0F0D0E0D02032C082C083058105819011C026
:20088000E0FBA3E0FCA3E0FD8B828C838DF0787E79A67A03121D71AB82AC83ADF0E5812430
:2008A000FDF8E4B6010508B6000104FAE4C0E0C0E0C0E08B828C838DF01250631581158198
:2008C000158170030209C9E58124FDF8E608466003EA603DC0029011B0E0FAA3E0FEA3E0AD
:2008E000FF8A828E838FF0C005C004C003C00278B079AB7A03121D71AE82AF83D002D003DF
:20090000D004D005A8811818A60608A607D00280109011C3E0FEA3E0FFA88118A60608A6B3
:2009200007C00274032BFAE43CFE8D078A828E838FF012580AFAA312580AFEA312580AFF6B
:20094000C007C006C005C004C003C002E58124F8F8E6C0E008E6C0E0E58124EBF8E6C0E07B
:2009600008E6C0E008E6C0E0E58124EBF8E6C0E008E6C0E008E6C0E0C002C006C007E58197
:2009800024EBF88682088683D002D001D000121D71E58124F8F581D002D003D004D005D00E
:2009A00006D0078B028C068D078A828E838FF078B179AC7A03121D71AA82AE83AFF08A0317
:2009C0008E048F05D0020208ACE58124FCF581021D83AD82AE83AFF0ED4E6054E58124FB58
:2009E000F8E60846604A74032DFAE43EFB8F048A828B838CF0E58124FBF8E612510AA308C2
:200A0000E612510AA308E612510A9011C0E0FAA3E0FBA3E0FCC005C006C0078A828B838C55
:200A2000F0782979A77A03121D71158115811581021D83AD82AE83AFF09011C0E0FAA3E0C7
:200A4000FBA3E0FCC005C006C0078A828B838CF0785679AA7A03121D711581158115810262
:200A60001D839011A375F00078A8798E7A04121D719011A0E0FDA3E0FEA3E0FF8D828E83A7
:200A80008FF0786979A67A03121D71901190E0FDA3E0FEA3E0FF7464C0E07417C0E0740092
:200AA000C0E08D828E838FF0784F79BA7A02121D711581158115819011B375F00078A879CD
:200AC0008E7A04121D719011B0E0FDA3E0FEA3E0FF8D828E838FF0786979A67A03121D717D
:200AE0009011C0E0FDA3E0FEA3E0FF8D828E838FF0786979A67A03121D71021D83AD82AE7A
:200B000083AFF0ED4E604F74032DFDE43EFE8D828E838FF012580AFDA312580AFEA31258D6
:200B20000AFF901190E0FAA3E0FBA3E0FCC005C006C0078A828B838CF0784079C07A02123D
:200B40001D71AD82AE83AFF01581158115818D828E838FF0800690000075F000021D83ADDD
:200B600082AE83AFF0ED4E60208D828E838FF078FD790A7A00121D71782D79847A02121D6A
:200B800071AD82AE83AFF0800690000075F000021D839011A0E0FDA3E0FEA3E0FF8D828E0A
:200BA000838FF0787E79A67A03121D71AD82AE83AFF0021D83AD82AE83AFF0ED4E60178D22
:200BC000828E838FF078B179AC7A03121D71AD82AE83AFF0800690000075F000021D8390EC
:200BE00011C3E0FEA3E0FF8E828F83021D83C082C083C0F0E5812409F58124FDF8E4F608C4
:200C0000F6087600A88176007892790B7A00121D71AF82AE83ADF0E58124FAF8A60708A643
:200C20000608A605E58124FAF8E4C0E0C0E0C0E086820886830886F012506315811581151E
:200C4000817003020D2DE58124FAF8741F26FAE40836FB0886078A828B838FF012580AFE78
:200C6000A881C3EE965003020D01C002C003C007EEC423541FFFE58124F5F8A6070876006C
:200C8000E58124F7F8740626FAE40836FD088606E58124F2F88603088604088607C003C0E7
:200CA00002E58124F3F8E6C0E008E6C0E0C002C005C0068B828C838FF0784779537A0012AA
:200CC0001D71AE82AF83E58124FBF581D002D003EE4FD007D003D00270278A828B838FF09B
:200CE000A88112580AF6E58124FAF8E58124FDF9E6F70809E6F70809E6F7A881B6800280CB
:200D00002CE58124FAF886820886830886F078B5790B7A00121D71AD82AE83AFF0E5812440
:200D2000FAF8A60508A60608A607020C24E58124FDF8E608467003020DDE9011A0E0FDA3A7
:200D4000E0FEA3E0FF8D828E838FF0787E79A67A03121D71AD82AE83AFF0E58124FDF8C024
:200D600005C006C00786820886830886F01250631581158115816066E58124FDF8860208EE
:200D800086030886049011A0E0FDA3E0FEA3E0FFC002C003C0048D828E838FF0785679AA3E
:200DA0007A03121D71158115811581E58124FDF886020886030886049011A0E0FDA3E0FE8B
:200DC000A3E0FFC002C003C0048D828E838FF0780E79A87A03121D71158115811581E581BD
:200DE00024FDF886820886830886F0C8E58124F4F581C8021D83C082C083C0F0E581240955
:200E0000F58124EEF886820886830886F0785D79847A02121D71AA82AB83ACF0E58124FB52
:200E2000F8A60208A60308A604E58124FBF8E608467008900000F5F0021275E58124F5F811
:200E400086820886830886F078EE790B7A00121D71AF82AE83ADF0E58124F8F8A60708A623
:200E60000608A605E58124F8F8E608467003020EF4E58124F8F886820886830886F0785FAC
:200E8000790B7A00121D71AC82AB83AAF08C058B068A07EC4B6047E58124EEF886020886A7
:200EA000030886047410C0E0E4C0E0C005C006C0078A828B838CF0784779537A00121D7168
:200EC000AE82AF83E58124FBF581EE4F7010E58124F8F886820886830886F0021275E581F8
:200EE00024F8F886820886830886F0788079127A00121D7178DF790B7A00121D71AE82AFD6
:200F000083BE0426BF00239011A0E0FDA3E0FEA3E0FF8D828E838FF078D379A67A03121DAE
:200F200071788079127A00121D71E58124FBF88602088603088604901190E0FDA3E0FEA349
:200F4000E0FFC002C003C0048D828E838FF0789679BE7A02121D71AD82AE83AFF0158115BF
:200F6000811581A8811818A60508A60608A607A8811818E608466003021027E58124FBF847
:200F80008602088603088604901190E0FFA3E0FEA3E0FDC002C003C0048F828E838DF07835
:200FA000DB79BC7A02121D71AF82AE83ADF0158115811581A8811818A60708A60608A605D7
:200FC000A8811818E608467008900000F5F0021275A8811818740326FDE40836FE08860766
:200FE0008D828E838FF0A8811818E612510AA308E612510AA308E612510AA8811818868249
:201000000886830886F0E412510AA312510AA312510AA881181886820886830886F07869FF
:2010200079A67A03121D719011A375F00078AA798F7A04121D71AD82AE83AFF0E58124F802
:20104000F8A60508A60608A607E58124F8F8E608467008900000F5F0021275E58124F8F8E6
:2010600086050886060886079011A0E0FAA3E0FBA3E0FCC005C006C0078A828B838CF07844
:201080000E79A87A03121D7115811581158190119375F00078AA798F7A04121D71AD82AE84
:2010A00083AFF08D048E038F02EC4B7031E58124F8F88605088606088607C005C006C00703
:2010C0009011A375F00078F879907A04121D7115811581158190000075F000021275740319
:2010E0002CFDE43BFE8A078D828E838FF0E58124F8F8E612510AA308E612510AA308E6120C
:20110000510A8C058B068A07A8811818740326FAE40836FB0886048A828B838CF012580A18
:20112000FAA312580AFBA312580AFCC005C006C0078A828B838CF0782979A77A03121D71CA
:20114000158115811581E58124F8F8740326FDE40836FE0886078D828E838FF0A88118180C
:20116000E612510AA308E612510AA308E612510A9011C3E02401F0A3E03400F0A8811818C7
:201180008605088606088607901190E0FAA3E0FBA3E0FCC005C006C0078A828B838CF07833
:2011A000BC79BF7A02121D71158115811581E58124F5F88605088606088607E58124F8F8B8
:2011C000740626FAE40836FB0886047410C0E0E4C0E0C005C006C0078A828B838CF078C1FD
:2011E00079567A00121D71E58124FBF58124F8F8741F26FDE40836FE0886078D828E838FDD
:20120000F0E58124F1F8E612510AE58124F8F8741626FDE40836FE0886077409C0E0E4C07B
:20122000E0C0E08D828E838FF0785579567A00121D71158115811581E58124EEF8E6C0E021
:2012400008E6C0E008E6C0E0E58124F2F8E6C0E008E6C0E008E6C0E0900002787579087AE2
:2012600000121D71E58124FAF58124F8F886820886830886F0C8E58124F4F581C8021D8303
:20128000C082C083C0F0E5812406F58124F8F8E608467003021620E58124F8F8740326FA0F
:2012A000E40836FB0886048A828B838CF012580AFDA312580AFEA312580AFFED4E7003029D
:2012C0001620E58124F8F8E58124FBF9E6F70809E6F70809E6F79011A0E0FDA3E0FEA3E005
:2012E000FFC004C003C002E58124F8F8E6C0E008E6C0E008E6C0E08D828E838FF0785679A4
:20130000AA7A03121D71158115811581D002D003D0048A828B838CF012580AFDA312580AAD
:20132000FEA312580AFF74032DFDE43EFE8D828E838FF012580AFDA312580AFEA312580A9C
:20134000FF8D828E838FF0C004C003C002787E79A67A03121D71AD82AE83AFF0D002D003D0
:20136000D004A8811818A60508A60608A607A8811818E4C0E0C0E0C0E08682088683088668
:20138000F01250631581158115817003021417C002C003C004E58124FBF8740326FAE408ED
:2013A00036FB0886048A828B838CF012580AFAA312580AFBA312580AFCE58124F5F8C00208
:2013C000C003C00486820886830886F01250631581158115817008D004D003D0028038E5DA
:2013E0008124FBF886020886030886048A828B838CF078B179AC7A03121D71AA82AB83ACA3
:20140000F0E58124FBF8A60208A60308A604D004D003D00202136EA8811818E60846703724
:20142000C002C003C004E58124F5F8740626FAE40836FB0886048A828B838CF0C004C00386
:20144000C00278C279A77A04121D71D002D003D004D004D003D002A8811818E58124FBF989
:20146000E6F70809E6F70809E6F78A828B838CF012580AFDA312580AFEA312580AFF74030A
:201480002DFDE43EFE8D828E838FF012580AFDA312580AFEA312580AFFC004C003C002E599
:2014A0008124F8F8E6C0E008E6C0E008E6C0E08D828E838FF0785679AA7A03121D711581B2
:2014C00015811581D002D003D0048A828B838CF012580AFDA312580AFEA312580AFF7403BE
:2014E0002DFDE43EFE8D828E838FF012580AFDA312580AFEA312580AFF8D828E838FF0C008
:2015000004C003C002787E79A67A03121D71AD82AE83AFF0D002D003D004ED4E70558A828C
:201520008B838CF012580AFAA312580AFBA312580AFC74032AFAE43BFB8A828B838CF01231
:20154000580AFAA312580AFBA312580AFC901190E0FDA3E0FEA3E0FFC002C003C0048D82A1
:201560008E838FF0783779BF7A02121D71158115811581E58124F8F88605088606088607E8
:20158000C005C006C0079011A375F00078F879907A04121D71158115811581A88118188618
:2015A00005088606088607C005C006C00790119375F00078F879907A04121D71158115814F
:2015C00015819011C3E024FFFEA3E034FFFF9011C3EEF0EFA3F0E58124F8F8868208868304
:2015E0000886F0785F790B7A00121D71AD82AE83AFF0E58124F8F8740626FAE40836FB08C0
:201600008604C005C006C007C002C003C004900003787579087A00121D71E58124FAF58190
:20162000E58124F7F581021D83C082C083C0F0058105810581E58124FBF8E6084670030224
:20164000175BE58124FBF8740326FAE40836FB0886048A828B838CF012580AFFA312580A35
:20166000FEA312580AFDEF4E700302175B8F828E838DF0C004C003C002787E79A67A0312A8
:201680001D71AD82AE83AFF0D002D003D004A8811818A60508A60608A607A8811818E60890
:2016A000467003021728A8811818740326FDE40836FE0886078D828E838FF012580AFDA3D5
:2016C00012580AFEA312580AFF8D828E838FF0C004C003C002788079127A00121D71D0022B
:2016E000D003D0048A828B838CF012580AFDA312580AFEA312580AFF8D828E838FF0C004AE
:20170000C003C002787E79A67A03121D71AD82AE83AFF0D002D003D004A8811818A605088E
:20172000A60608A60702169AE58124FBF88605088606088607901190E0FAA3E0FBA3E0FC5D
:20174000C005C006C0078A828B838CF0783779BF7A02121D71158115811581E58124FAF563
:2017600081021D83782979167A00121D71021D83785D79847A02121D71AD82AE83AFF090DD
:201780001190E0FAA3E0FBA3E0FCC005C006C0078A828B838CF0789679BE7A02121D71ADDB
:2017A00082AE83AFF01581158115818D828E838FF0782979167A00121D71021D83058105FF
:2017C000810581AD82AE83AFF0C007C006C00578A6791A7A00121D71AA82AB83ACF0D0051B
:2017E000D006D007A8811818A60208A60308A604A8811818E608466003021886C005C006BD
:20180000C0079011B375F00078AA798F7A04121D71AD82AE83AFF0E58124FBF8A60508A62B
:201820000608A607D007D006D005A8811818E608467008900000F5F0021987C005C006C004
:2018400007E58124FBF886050886060886079011B0E0FAA3E0FBA3E0FCC007C006C005C016
:2018600005C006C0078A828B838CF0780E79A87A03121D71158115811581D005D006D00738
:20188000D007D006D0058D028E038F04C005C006C007E58124FBF8740326FDE40836FE0882
:2018A0008607C007C006C0057410C0E0E4C0E0C002C003C0048D828E838FF078C179567A37
:2018C00000121D71E58124FBF581D005D006D007D007D006D005E58124F7F8E6084608466E
:2018E0000846605FA8811818741326FAE40836FB088604C007C006C005E58124F4F8E6C0BE
:20190000E008E6C0E008E6C0E008E6C0E08A828B838CF0787179807A04121D71E58124FC21
:20192000F581D005D006D007A8811818741B26FAE40836FB0886048A828B838CF0E412511B
:201940000A801AA8811818741B26FAE40836FB0886048A828B838CF0740112510AC005C02F
:2019600006C007C005C006C007900000787579087A00121D71E58124FAF581A88118188657
:20198000820886830886F0158115811581021D83C082C083C0F09011B0E0FAA3E0FBA3E071
:2019A000FC8A828B838CF0787E79A67A03121D71AA82AB83ACF0E4C0E0C0E0C0E08A828B12
:2019C000838CF01250631581158115817003021A9DA8811818C002C003C00486820886839A
:2019E0000886F01250631581158115816003021A79A881181886040886030886029011B095
:201A0000E0FDA3E0FEA3E0FFC004C003C0028D828E838FF0785679AA7A03121D7115811545
:201A2000811581A88118188605088606088607C005C006C0079011B375F00078F879907A84
:201A400004121D71158115811581A8811818740326FDE40836FE088607C005C006C007C066
:201A600005C006C007900001787579087A00121D71E58124FAF58180248A058B068C078DDD
:201A8000828E838FF078B179AC7A03121D71AD82AE83AFF08D028E038F040219B61581159B
:201AA000811581021D83C082C083C0F00581058105819011B0E0FAA3E0FBA3E0FC8A828BE7
:201AC000838CF0787E79A67A03121D71AA82AB83ACF0A8811818A60208A60308A604A88152
:201AE0001818E4C0E0C0E0C0E086820886830886F01250631581158115817003021B83E5DC
:201B00008124FBF88605088606088607A8811818740326FAE40836FB0886047410C0E0E4D2
:201B2000C0E0C005C006C0078A828B838CF0784779537A00121D71AE82AF83E58124FBF59C
:201B400081EE4F700EA881181886820886830886F08036A881181886020886030886048A15
:201B6000828B838CF078B179AC7A03121D71AD82AE83AFF0A8811818A60508A60608A60782
:201B8000021ADE90000075F000C8E58124FAF581C8021D830581058105817D007E007F001E
:201BA0009011B0E0FAA3E0FBA3E0FC8A828B838CF0C007C006C005787E79A67A03121D71E3
:201BC000AA82AB83ACF0D005D006D007A8811818A60208A60308A604A8811818E4C0E0C08C
:201BE000E0C0E086820886830886F01250631581158115817003021C9BA881181874032625
:201C0000FAE40836FB0886048A828B838CF078F879827A02121D71AF82AE83ADF08F028EE0
:201C2000038D04EF4E602974222AFAE43BFB8A828B838CF012580A6017A8811818740326FF
:201C4000FAE40836FB0886048A828B838CF08051A8811818740326FDE40836FE088607A824
:201C600081181886020886030886048A828B838CF0C007C006C00578B179AC7A03121D71B5
:201C8000AA82AB83ACF0D005D006D007A8811818A60208A60308A604021BD88D828E838FC4
:201CA000F0158115811581021D839011B0E0FDA3E0FEA3E0FF8D828E838FF0787E79A67A71
:201CC00003121D71AD82AE83AFF0ED4E7003021D6E741B2DFAE43EFB8F048A828B838CF02B
:201CE00012580A706574132DFAE43EFB8F048A828B838CF0C007C006C00578B579817A04B0
:201D0000121D71E5828583F0D005D006D00745F060388D828E838FF0789079197A00121D93
:201D2000719011B0E0FAA3E0FBA3E0FC8A828B838CF0787E79A67A03121D71AA82AB83AC3C
:201D4000F08A058B068C07021CCA8D028E038F048A828B838CF078B179AC7A03121D71AA9A
:201D600082AB83ACF08A058B068C07021CCA021D83C09FC8C0E0E9C0E0EA540F539FF04219
:201D80009FC822D09F22AFF474EC5FF5F443FE13021D83A291E43325E0FFA290E433FEEF64
:201DA0004206A294E43325E025E0FF42068E82021D83E582FF139200929074025FC313FEB5
:201DC00024FF9291530704EF0303543FFF24FF9294021D83AE82AF83C2AF8E048F051EBE18
:201DE000FF011FEC4D60030080F0D2AF021D83AE82AF83C007C0067836791E7A00121D7147
:201E0000AC82AD83D006D007C007C006C005C0047836791E7A00121D71AA82AB83D004D044
:201E200005D006D007EAC39CFAEB9DFBC3EA9EEB9F40D5021D83850F82851083021D83AC22
:201E400011AD127E007F008C828D838EF0EF021D8375C6C0AFC674BF5FF5C6E59E20E6FB47
:201E600043C630E5C6B59EFB900000E595F0E4A3F0A3F0A3F0AC967D007E008E078D068CA8
:201E8000057C00900000E0F8A3E0F9A3E0FAA3E0FB900000EC28F0ED39A3F0EE3AA3F0EFEB
:201EA0003BA3F0AC977D008D078C067D007C00900000E0F8A3E0F9A3E0FAA3E0FB90000006
:201EC000EC28F0ED39A3F0EE3AA3F0EF3BA3F0900000E0FCA3E0FDA3E0FEA3E0FF9000004E
:201EE000ECF074012DA3F0E43EA3F0E43FA3F0900000E0A3E0A3E0FEA3E08E97900000E0DA
:201F0000A3E0FDA3E0A3E08D96900000E0FCA3E0FDA3E0FEA3E0FF8C95D2AD021D83C0E047
:201F2000C082C083C007C006C005C004C003C002C001C000C0D075D000C2AF900000E595B0
:201F4000F0E4A3F0A3F0A3F0AC967D007E008E078D068C057C00900000E0F8A3E0F9A3E01B
:201F6000FAA3E0FB900000EC28F0ED39A3F0EE3AA3F0EF3BA3F0AC977D008D078C067D00C1
:201F80007C00900000E0F8A3E0F9A3E0FAA3E0FB900000EC28F0ED39A3F0EE3AA3F0EF3BB4
:201FA000A3F0900000E0FCA3E0FDA3E0FEA3E0FF900000ECF074012DA3F0E43EA3F0E43F26
:201FC000A3F0900000E0A3E0A3E0FEA3E08E97900000E0A3E0FDA3E0A3E08D96900000E0C9
:201FE000FCA3E0FDA3E0FEA3E0FF8C957401250FF50FE43510F510E50F547F6002800B743E
:20200000012511F511E43512F512900F4A7401F0C2C7D2AFD0D0D000D001D002D003D0043F
:20202000D005D006D007D083D082D0E03275E40975AF0075E644C2DED2B9021D83AE82AFC6
:2020400083ADE674FB5DF5E68EDC8FDD43E60475AF0043E640021D83C020C0E0C0F0C0821F
:20206000C083C007C006C005C004C003C002C001C000C0D075D000C2B9AFAF74FD5FF5AFDF
:20208000AFE674BF5FF5E678C079807A01121D71D2B9D0D0D000D001D002D003D004D005D8
:2020A000D006D007D083D082D0F0D0E0D02032C082C083C0F0E5812404F5817B007C00A864
:2020C0008118E4F608F67D007E00C003C004E58124FBF8ED24FAF6EE340208F6E58124FBE8
:2020E000F8741126F582E40836F583E0FF7A00E58124FBF88682088683E0D004D003700343
:202100000221A0EF4A600BBF0105BA000280030221A0C003C004E58124FDF8E624FAFB0884
:20212000E63402FC8B828C83A3E0FCBCFE028006D004D0038023E58124FDF8E624FAFB08DA
:20214000E63402FC8B828C83A3A3E0FCBC8006D004D003804BD004D003A88118E624FAFA8F
:2021600008E63402FF0ABA00010F7E00E58124FAF886050886040886037410C0E0E4C0E018
:20218000C002C007C0068D828C838BF078C179567A00121D71E58124FBF581900001802801
:2021A000A88118741C26F6E40836F6741C2DFDE43EFE0BBB00010CC3EB9403EC6480948044
:2021C00050030220CA900000E58124F9F581021D83E5812407F581A8811818A68208A683DC
:2021E00008A6F0A8811818E58124F5F9E726FA09E70836FB0886048A828B838CF012580AA4
:20220000FAE4E58124FAF8080808A6021818187600087600087600E58124F5F8740126FDDB
:20222000E40836FEA8811818ED26FDEE0836FE0886078D828E838FF012580AFD7F008F0434
:202240008D06E4FFFDE58124FAF8ED46F6EF0846F6EE0846F6EC0846F6E58124F5F87402E4
:2022600026FAE40836FBA8811818EA26FAEB0836FB0886078A828B838FF012580AFA7F007F
:202280007E008E058F068A077A00E58124FAF8EA46F6EF0846F6EE0846F6ED0846F6E581EF
:2022A00024F5F8740326FBE40836FCA8811818EB26FBEC0836FC0886078B828C838FF0128A
:2022C000580AFBE4FFFEFDE58124FAF8E6420308E6420708E6420608E642058B828F838ECD
:2022E000F0EDC8E58124F9F581C8021D83C082C083C0F0058105810581E58124F6F886030E
:20230000088604E58124F6F874012BF6E43C08F6E58124FBF8EB26FBEC0836FC088602E5DB
:202320008124F2F808080886078B828C838AF0EF12510AE58124F6F88606088607E5812454
:20234000F6F874012EF6E43F08F6E58124FBF8EE26FEEF0836FF088605E58124F2F8080803
:2023600086048E828F838DF0EC12510AE58124F6F88606088607E58124F6F874012EF6E44D
:202380003F08F6E58124FBF8EE26FEEF0836FF088605E58124F2F80886048E828F838DF00D
:2023A000EC12510AE58124F6F88606088607E58124FBF8A9811919EE26F7EF083609F70812
:2023C00009E6F7E58124F2F886027B007C007F00A881181886820886830886F0EA12510A5E
:2023E000E58124FAF581021D83C082C083C0F0A8811818E58124F9F9E726FA09E70836FB07
:202400000886048A828B838CF012580AFC7A00E58124F9F8740126FBE40836FFA88118181F
:20242000EB26FBEF0836FF0886068B828F838EF012580AFB7F004202EF42048A828C83159C
:202440008115811581021D83C082C083C0F0E58124F9F88603088604E58124F9F874012B47
:20246000F6E43C08F6A8811818EB26FBEC0836FC088602E58124F7F80886078B828C838A79
:20248000F0EF12510AE58124F9F88606088607A8811818EE26FEEF0836FF088605E58124A0
:2024A000F7F886037C008E828F838DF0EB12510A158115811581021D837D6B7E057F00746F
:2024C00058C0E07406C0E0E4C0E08D828E838FF0125063158115811581400302254F748390
:2024E0002DFAE43EFB8F048A828B838CF012580AFABA015190067EE0FCBCFF1D8D828E830D
:202500008FF0C007C006C005780679C67A02121D71D005D006D007802CC007C006C005741D
:202520006EC0E07406C0E0E4C0E08D828E838FF0784E79317A00121D71158115811581D034
:2025400005D006D00774ED2DFDE43EFE0224BF90075CE4F0A3F09011E8F0021D83C082C0C2
:2025600083C0F0E5812410F5819011E8E0242C2466FBE43406FC8B058C067F008D028E03FF
:202580008F040DBD00010E8D828E838FF0E412510A8A828B838CF012510AE58124EEF8E686
:2025A0000846705FE58124F1F876FF087602E58124F1FF2402F8760008760074042FF876F5
:2025C0000008760074062FF8760008760074082FF87600087600740A2FF876000876007444
:2025E0000C2FF87600087600740E2FF8760008761AE58124F1FFE58124EEF8A607087600E8
:202600000876407402C0E0E4C0E0C0E0C0E0749BC0E0E4C0E0E58124E8F886820886830864
:2026200086F0782D79F27A03121D71E58124FA24EDF581021D83E5812483F5812496FFFC12
:202640007D007E40C0077457C0E0E4C0E0C0E08C828D838EF0785579567A00121D71158101
:2026600015811581D007E5812489F8741A2FF6E5812489F886007608E5812488F8741B2FC2
:20268000F6E5812488F88600760CE5812487F8741C2FF6E5812487F88600760A74222FFDA3
:2026A000A8057600087601E5812482F874202FF6E5812482F88600760008760718E5812494
:2026C0007EF874102FF6901282E0FAA3E0FBE581247EF88600A60208A60318E5812481F865
:2026E000741D2FF6E5812481F8860076FFE5812480F8741E2FF6E5812480F8860076FF0868
:2027000076FF18E581247FF8E58124F1F6E581247FF886027B007C40C007C0057410C0E04A
:20272000E4C0E0746EC0E07406C0E0E4C0E08A828B838CF078C179567A00121D71E58124B3
:20274000FBF581D005D007E581247FF886047B007A408C828B838AF0C007C00578F879820F
:202760007A02121D71AA82AB83ACF0D005D007EA4B6003022832C00575821AC007C00578CD
:202780004F79C07A03121D71AA82AB83ACF0D005D007E5812482F8A60208A60308A604E5FE
:2027A00081247EF886058D037C007D40C0077401C0E0E4C0E0E581247FF8E6C0E008E6C015
:2027C000E008E6C0E08B828C838DF0782F79807A02121D71AB82AC83ADF0E58124FBF58142
:2027E000D007E5812482F8A60308A60408A605EB4CD005700302313AE5812483F874102655
:20280000FAE40836FB088604C007C0057458C0E07402C0E0E4C0E0C0E08A828B838CF078CF
:202820007179807A04121D71E58124FCF581D005D007C00590075CE0FBA3E09011E8E024C5
:202840002CFCEBC39CFBE5812494F8A603EC2466FCE43406FAE5812491F8A60408A602084D
:20286000760074182FFDE5812491F886820886830886F012580AFCA805A60474172FFDE51D
:20288000812491F8740126FAE40836FB0886048A828B838CF012580AFAA805A60274122FB8
:2028A000FDC007C0057402C0E0E4C0E0E581248DF886820886830886F078E979237A0012C6
:2028C0001D71AB82AC8315811581D005D007A805A60308A60474142FF9E5812491F87404F3
:2028E00026FAE40836FB0886048A828B838CF012580AFD74805DF774152FF98A828B838C63
:20290000F012580A5438C423541FF774162FFD8A828B838CF012580AFA74075AA805F674D0
:20292000192FFDE5812491F8740526FAE40836FB0886048A828B838CF012580AFAA805A6A0
:2029400002E5812491F8740826FBE40836FC088605E5812482F8A60308A60408A6058F0271
:202960007C007D40C007C0057410C0E0E4C0E0E581247EF8E6C0E008E6C0E008E6C0E08ABE
:20298000828C838DF078C179567A00121D71E58124FBF581D005D007E58124ECF87618085C
:2029A0007600E5812482F8743A2FF6E5812485F874502FF6D005E5812495F8E581248AF9E1
:2029C000E6F7097700E58124EDF8E581248AF9C3E69708E664800987F063F08095F04003F1
:2029E000023110C005E5812491F8E58124ECF9E726FA09E70836FD0886068A828D838EF0ED
:202A000012580AFED005EE700CE58124EFF876010876008039C005E58124ECF8740126FC1C
:202A2000E40836FDE5812491F8EC26FCED0836FD0886038C828D838BF012580AFC7D00E532
:202A40008124EEF874022CF6E43D08F6D005E58124EFF8E58124EDF9E726FB09E70836FC4C
:202A6000E581248AF8C3E69B08E664808CF063F08095F0500302313ABE02028015BE030385
:202A8000022C37BE0403022E00BE0803022FDA0230FBE58124EFF8C3E6940608E6648094C1
:202AA00080500302313AC00574502FF9E58124ECF8740226FBE40836FCE5812491F8EB26DE
:202AC000FBEC0836FC0886058B828C838DF012580AF774512FF9E58124ECF8740326FCE466
:202AE0000836FDE5812491F8EC26FCED0836FD0886038C828D838BF012580A25E0FCF7E5D7
:202B00008124ECF8740426FBE40836FDE5812491F8EB26FBED0836FD0886068B828D838EEE
:202B2000F012580A235401FA4CF774522FF98B828D838EF012580AC4540FFC74035CF7741E
:202B4000532FF98B828D838EF012580AFB740F5BF774542FF9E58124ECF8740526FDE40835
:202B600036FEE5812491F8ED26FDEE0836FE0886048D828E838CF012580AF7E5812485F834
:202B800086008606D005EE70030230FBBE074874552FF9E58124EDF8740626FCE40836FE97
:202BA000C007C005C001C004C006E581248DF886820886830886F078E979237A00121D7181
:202BC000AC82AE8315811581D001D005D007A70409A706190230FBBE0202800302313A7420
:202BE000552FF9E58124EDF8740626FCE40836FEE5812492F8EC26FCEE0836FE0886038CC4
:202C0000828E838BF012580AF774562FF9E58124EDF8740726FCE40836FEE5812492F8EC1D
:202C200026FCEE0836FE0886038C828E838BF012580AFCF70230FBE58124EFF8C3E69409D2
:202C400008E664809480500302313AC005E581248DF874242FF674382FF9E58124ECF87487
:202C60000226FBE40836FCE5812491F8EB26FBEC0836FC0886028B828C838AF012580AF73D
:202C800074392FF8C000E58124EBF8740326FBE40836FCE5812490F8EB26FBEC0836FC0831
:202CA0008602D0008B828C838AF012580AF674342FF8C000E58124EBF8740426FBE4083605
:202CC000FCD000C007C001C000C003C004C000E581248BF886820886830886F0D00078D1DC
:202CE00079217A00121D71AA82AB83ACF0FD15811581D000D001A60208A60308A60408A6A7
:202D00000518181887068E037A0074072BFCE43AFDC006C003C0027408C0E0E4C0E08C8218
:202D20008D83125AE2AC82AD8315811581D002D003D006D00774082CFCE43DFDE58124EE1F
:202D4000F8C3E69C08E664808DF063F08095F0D005500302313AEE247F500302313AC005E4
:202D600074072BFBE43AFCC007C0057408C0E0E4C0E08B828C83125AE2C8E5812487C8A6BB
:202D80008208A68315811581D005D007E58124ECF8740826FAE40836FDE5812491F8EA265C
:202DA000FAED0836FD088606E581248EF8A60208A60508A606E581248DF886048C037C009A
:202DC0007E40C007C005E5812489F8E6C0E008E6C0E0E581248AF8E6C0E008E6C0E008E67C
:202DE000C0E08B828C838EF078C179567A00121D71E58124FBF581D005D007D0050230FBCE
:202E0000E58124EFF8B6100608B60002800302313AE58124EDF8740326FCE40836FEE58137
:202E20002492F8EC26FCEE0836FE0886038C828E838BF012580AFCE5812489F88600A604D6
:202E4000E58124EDF8740426FCE40836FEE5812492F8EC26FCEE0836FE0886038C828E834D
:202E60008BF012580AFCE5812488F88600A604E58124EDF8740526FCE40836FEE5812492E7
:202E8000F8EC26FCEE0836FE0886038C828E838BF012580AFCE5812487F88600A604E581C8
:202EA00024EDF8740626FCE40836FEC007C005C004C006E581248EF886820886830886F090
:202EC00078E979237A00121D71AC82AE8315811581D005D007E5812482F88600A60408A6C2
:202EE0000618E58124EDF8740826FCE40836FEC007C005C004C006E581248EF886820886CB
:202F0000830886F078E979237A00121D71AC82AE8315811581D005D007A805A60408A60657
:202F2000E58124EDF8740A26FCE40836FEC007C005C004C006E581248EF88682088683081B
:202F400086F078E979237A00121D71AC82AE8315811581D005D007E581247EF88600A6047D
:202F600008A60618E58124EDF8740D26FCE40836FEE5812492F8EC26FCEE0836FE08860376
:202F80008C828E838BF012580AFCE5812481F88600A604E58124EDF8740E26FCE40836FEC1
:202FA000C007C005C004C006E581248EF886820886830886F078E979237A00121D71AC820F
:202FC000AE8315811581D005D007E5812480F88600A60408A606180230FBE58124EFF8B696
:202FE000200608B60002800302313AC005744E2FF9E58124ECF8740226FCE40836FEE581C0
:203000002491F8EC26FCEE0836FE0886038C828E838BF012580AF7744F2FF9E58124ECF8DC
:20302000740326FCE40836FEE5812491F8EC26FCEE0836FE0886038C828E838BF012580AED
:20304000F7744A2FF9E58124ECF8740826FCE40836FEC007C005C001C004C006E581248C7A
:20306000F886820886830886F078D179217A00121D71AA82AB83ACF0FE15811581D001D003
:2030800005D007A70209A70309A70409A706191919E58124ECF8741026FCE40836FEE581A9
:2030A0002491F8EC26FCEE0836FE088603E581248EF8A60408A60608A603E5812482F886F1
:2030C000027D007E40C007C0057410C0E0E4C0E0E581248AF8E6C0E008E6C0E008E6C0E0D1
:2030E0008A828D838EF078C179567A00121D71E58124FBF581D005D007D005E58124EDF829
:20310000E58124EFF9E726F609E70836F60229B67E007D40E581247FF886047B007A40C07A
:2031200007C006C0058C828B838AF078CC79D07A01121D7115811581158190075CE4F0A393
:20314000F09011E8F0E581247DF581021D83C082C083C0F0E5812422F58124DCF8740A26F4
:20316000FAE40836FB0886048A828B838CF0E58124EEF812580AF6A312580A08F6A3125814
:203180000A08F69011E8E0242C2466FBE43406FCE58124E9F8A60308A604087600E5812401
:2031A000DCF8748226FDE40836FE0886078D828E838FF012580AFDE58124E9F8868208865C
:2031C000830886F0ED12510AE58124E9F8740126FDE40836FE088607E58124EEF8741226C0
:2031E000FAE40836FB0886048A828B838CF012580A8D828E838FF012510AE58124EEF8742C
:203200001A26FDE40836FE0886078D828E838FF012580AFDA312580AFEC005C0067402C0D6
:20322000E0E4C0E0E58124E5F886820886830886F0784879247A00121D71E58124FCF581B9
:2032400024E9F8740426FDE40836FE0886078D828E838FF0E412510AE58124EEF87413260C
:20326000FAE40836FB0886048A828B838CF012580A60178D828E838FF012580AFC4304804E
:203280008D828E838FF0EC12510A8D828E838FF0E58124DFF812580AF6E58124DCF8748575
:2032A00026FAE40836FB0886048A828B838CF012580AC40354F8FAE58124DFF8EA46F68D14
:2032C000828E838FF0E58124DFF8E612510AE58124EEF8741426FAE40836FB0886048A8255
:2032E0008B838CF012580AFA74075AC8E58124DFC8468D828E838FF012510AE58124E9F84B
:20330000E58124E0F9740526F7E4083609F70809E6F7E58124DCF8748426FAE40836FB0809
:2033200086048A828B838CF012580AFFE58124E0F886820886830886F0EF12510AE581241B
:20334000D6F8E60846702A8A828B838CF012580AFF2480500EEF04FE8A828B838CF01251DC
:203360000A800EEF04547FFF8A828B838CF012510AE58124E9F8740626FDE40836FE088637
:20338000078D828E838FF0E412510AE58124E9F8740726FDE40836FE0886078D828E838FC9
:2033A000F0E412510AE58124EEF88605088606088607E58124E9F8740826FAE40836FB087C
:2033C00086047410C0E0E4C0E0C005C006C0078A828B838CF078C179567A00121D71E5814B
:2033E00024FBF58124ECF87618087600E58124DCF886820886830886F012580A700302370F
:2034000081E58124DCF8740726FBE40836FC0886058B828C838DF012580AFBA312580AFC65
:20342000A312580AFD740F2BFBE43CFC8B828C838DF012580AFBA312580AFCA312580AFD84
:20344000C005C004C003C003C004C005E58124D6F886820886830886F0D002D001D0001260
:203460001D71D003D004D005E58124ECF88604088605E58124ECF806B600020806E58124F3
:20348000E9F8EC26FCED0836FD0886038C828D838BF0740212510AE58124ECF88604088682
:2034A00005E58124ECF806B600020806E58124E9F8EC26FCED0836FD0886038C828D838BF2
:2034C000F0740612510AE58124ECF88604088605E58124ECF806B600020806E58124E9F8E5
:2034E000EC26FCED0836FD088603E58124DCF886820886830886F012580AFA8C828D838BF9
:20350000F012510AE58124ECF88604088605E58124ECF806B600020806E58124E9F8E581B8
:2035200024E0F9EC26F7ED083609F70809E6F7E58124DCF8740126FAE40836FE0886078A3A
:20354000828E838FF012580AC313FDE58124E0F886820886830886F0ED12510AE58124E94C
:20356000F8E58124ECF9E726FB09E70836FC0886058A828E838FF012580A5401035480FAE9
:203580008B828C838DF012510AE58124ECF88606088607E58124ECF806B600020806E581F6
:2035A00024E9F8EE26FEEF0836FF0886058E828F838DF0E58124E0F812580AF6E58124DC64
:2035C000F8740226FAE40836FB0886048A828B838CF012580AFAE58124DFF8EAC454F0F661
:2035E000E58124DCF8740326FAE40836FB0886048A828B838CF012580AFAE58124DFF8EAD8
:2036000046C8E58124E0C846FC8E828F838DF012510AE58124DCF886820886830886F01215
:20362000580AFFBF070280030236B3E58124ECF88605088606E58124ECF806B6000208062C
:20364000E58124E9F8ED26FDEE0836FE0886048D828E838CF0740212510AE58124DCF874E2
:203660000526FCE40836FD0886068C828D838EF012580AFCA312580AFDC004C005E581243D
:20368000EAF8E6C0E008E6C0E0E58124E5F886820886830886F0784879247A00121D71E5DA
:2036A0008124FCF58124ECF8740226F6E40836F6023781BF0202800302377EE58124ECF81C
:2036C0008606088607E58124ECF806B600020806E58124E9F8EE26FEEF0836FF0886058EC5
:2036E000828F838DF0740212510AE58124ECF88606088607E58124ECF806B600020806E528
:203700008124E9F8E58124E0F9EE26F7EF083609F70809E6F7E58124DCF8740526FAE408B7
:2037200036FB0886048A828B838CF012580AFFE58124E0F886820886830886F0EF12510A68
:20374000E58124ECF88606088607E58124ECF806B600020806E58124E9F8EE26FEEF0836F6
:20376000FF0886050ABA00010B8A828B838CF012580AFA8E828F838DF012510A8003023E14
:203780000DE58124ECF88606088607E58124ECF806B600020806E58124E9F8EE26FEEF08DF
:2037A00036FF0886058E828F838DF0740412510AE58124ECF88606088607E58124ECF806BA
:2037C000B600020806E58124E9F8EE26FEEF0836FF0886058E828F838DF0740E12510AE574
:2037E0008124ECF88606088607E58124ECF806B600020806E58124E9F8EE26FEEF0836FF3C
:203800000886058E828F838DF0E412510AE58124ECF88606088607E58124ECF806B600026A
:203820000806E58124E9F8EE26FEEF0836FF088605E58124DCF8748626FAE40836FB08861B
:20384000048A828B838CF012580AFA8E828F838DF012510AE58124ECF88606088607E5815F
:2038600024ECF806B600020806E58124E9F8EE26FEEF0836FF088605E58124DCF8748726B9
:20388000FAE40836FB0886048A828B838CF012580AFA8E828F838DF012510AE58124ECF801
:2038A0008606088607E58124ECF806B600020806E58124E9F8EE26FEEF0836FF088605E58C
:2038C0008124DCF8748826FAE40836FB0886048A828B838CF012580A8E828F838DF0125198
:2038E0000AE58124DCF8748D26FDE40836FE0886078D828E838FF012580AFDA312580AFE62
:20390000C005C006E58124EAF8E6C0E008E6C0E0E58124E5F886820886830886F078487965
:20392000247A00121D71E58124FCF58124ECF8740226F6E40836F6E58124DCF8748F26FD17
:20394000E40836FE0886078D828E838FF012580AFDA312580AFEC005C006E58124EAF8E6B0
:20396000C0E008E6C0E0E58124E5F886820886830886F0784879247A00121D71E58124FC1E
:20398000F58124ECF8740226F6E40836F6E58124DCF8740726FDE40836FE0886078D828EB1
:2039A000838FF012580AFDA312580AFEA312580AFF74122DFDE43EFE8D828E838FF0125890
:2039C0000AFDA312580AFEC005C006E58124EAF8E6C0E008E6C0E0E58124E5F886820886C3
:2039E000830886F0784879247A00121D71E58124FCF58124ECF8740226F6E40836F6E5813B
:203A000024ECF88606088607E58124ECF806B600020806E58124E9F8EE26FEEF0836FF0892
:203A200086058E828F838DF0E412510AE58124ECF88606088607E58124ECF806B600020848
:203A400006E58124E9F8EE26FEEF0836FF088605E58124DCF8748926FAE40836FB088604FA
:203A60008A828B838CF012580A8E828F838DF012510AE58124DCF8749126FDE40836FE0882
:203A800086078D828E838FF012580AFDA312580AFEC005C006E58124EAF8E6C0E008E6C049
:203AA000E0E58124E5F886820886830886F0784879247A00121D71E58124FCF58124ECF8AD
:203AC000740226F6E40836F6E58124EEF8E58124E6F9741F26F7E4083609F70809E6F7E5BE
:203AE0008124E6F8741426FFE40836FE0886058F828E838DF012580A7003023D43E5812451
:203B0000ECF88603088604E58124ECF806B600020806E58124E9F8EB26FBEC0836FC088641
:203B2000028B828C838AF0740812510AE58124ECF88603088604E58124ECF806B600020847
:203B400006E58124E9F8EB26FBEC0836FC0886028B828C838AF0741E12510AE58124ECF82F
:203B60008603088604E58124ECF806B600020806E58124E9F8E58124E3F9EB26F7EC0836ED
:203B800009F70809E6F78F828E838DF012580AFCE58124E3F886820886830886F0EC1251DD
:203BA0000AE58124ECF88603088604E58124ECF806B600020806E58124E9F8EB26FFEC08C9
:203BC00036FE088605E58124E6F8741526FAE40836FB0886048A828B838CF012580A8F8243
:203BE0008E838DF012510AE58124E6F8E58124E3F9741026F7E4083609F70809E6F7E581E5
:203C000024E3F886820886830886F012580AFAA312580AFBA312580AFCA312580AFFC002A3
:203C2000C003C004C007E58124E8F8E6C0E008E6C0E0E58124E3F886820886830886F07844
:203C4000ED79227A00121D71E58124FAF58124ECF8740426F6E40836F6E58124E3F88682A7
:203C60000886830886F012580AFCA312580AFDA312580AFEA312580AFFC004C005C006C0F7
:203C800007E58124E8F8E6C0E008E6C0E0E58124E3F886820886830886F078ED79227A0029
:203CA000121D71E58124FAF58124ECF8740426F6E40836F6E58124E9F8E58124ECF9E726CF
:203CC000FD09E70836FE0886077404C0E0E4C0E0C0E08D828E838FF0785579567A00121D06
:203CE00071158115811581E58124ECF8740426F6E40836F6E58124E6F88605088606088662
:203D000007E58124E9F8E58124ECF9E726FA09E70836FB0886047410C0E0E4C0E0C005C0D3
:203D200006C0078A828B838CF078C179567A00121D71E58124FBF58124ECF8741026F6E477
:203D40000836F6E58124D6F8E608466003023DD7E58124F1F876FF087602E58124F1FF2424
:203D600002F8760008760074042FF8760008760074062FF8760008760074082FF87600080C
:203D80007600740A2FF87600087600740C2FF87600087600740E2FF8760008761AE5812438
:203DA000F1FF7E007D40E58124ECF8E6C0E008E6C0E07401C0E0E4C0E0749BC0E0E4C0E08A
:203DC0008F828E838DF0782D79F27A03121D71E58124FAF5818036E58124ECF8E6C0E0086B
:203DE000E6C0E07401C0E0E4C0E0749BC0E0E4C0E0E58124D0F886820886830886F0782DE3
:203E000079F27A03121D71E58124FAF581E58124DBF581021D83E581244BF581A8811876A1
:203E200000E58124E4F9FC7D007E40C0017410C0E0E4C0E0746EC0E07406C0E0E4C0E08CCF
:203E4000828D838EF078C179567A00121D71E58124FBF581D0019011E8E0242CFE2466FC27
:203E6000E43406FDE58124FAF8A60408A60508760090075CE0FAA3E0EAC39EFEE58124DAD3
:203E8000F8A606E58124FAF886820886830886F012580AF582C001783279B77A01121D71CA
:203EA000AF82AE83ADF0D001E58124F7F8A60708A60608A605E58124F7F8E6084670030283
:203EC0004990C001E58124F6F8748926FAE40836FE0886078A828E838FF0E58124B5F81219
:203EE000580AF6E58124F9F8740126FAE40836FE0886078A828E838FF0A8811812580AF65E
:203F0000E58124DAF87604087600E58124F9F8740326FAE40836FE0886078A828E838FF0EA
:203F200012580AFAE58124FCF8A602087600E58124F6F8740A26FAE40836FE0886078A8298
:203F40008E838FF0E58124F3F812580AF6A312580A08F6A312580A08F6A88118E6D00130A0
:203F6000E65CC001E58124F9F8740426FAE40836FE088607E58124F3F88603088604088658
:203F800005C0017410C0E0E4C0E0C002C006C0078B828C838DF0784779537A00121D71AE78
:203FA00082AF83E58124FBF581D001D001EE4F6003024990E58124DBF87614087600870742
:203FC000BFFF047F0280027F01E58124DFF8A607087600E58124DFF8E4B6010508B6000150
:203FE00004FD70030241D489047B007A40C005C001C004C003C002E58124EFF8868208869E
:20400000830886F0783179A47A01121D71AA82AB83ACF0158115811581D001D005E58124D6
:20402000E1F8A60208A60308A604E58124E1F8E60846700302413CC005E58124E0F8C0012B
:20404000E58124B5F9740326F7E4083609F70809E6F7D001E58124B6F886820886830886D4
:20406000F012580AFDA312580AFFE58124F6F8748F26FBE40836FC0886068B828C838EF0E1
:2040800012580AFBA312580AFCC005C004C003C001C003C0048D828F83125B58C8E58124D2
:2040A000B3C8A68208A68315811581D001D003D004D005E58124F3F8741A26FAE40836FD71
:2040C0000886078A828D838FF012580AFAA312580AFDC005C001C003C0048A828D83125B98
:2040E00058AE82AF8315811581D001D005E58124B9F8C3E69E08E69FD0055040E58124B77F
:20410000F886820886830886F074FF12510AA312510AE58124E1F8740826FCE40836FE08F7
:2041200086078C828E838FF012580AFB4303018C828E838FF0EB12510A024990E58124E162
:20414000F8E6084670030241D4E58124F4F8741726FCE40836FE0886078C828E838FF01221
:20416000580AFCA312580AFEA312580AFFE58124E1F8C004C006C00786820886830886F06B
:204180001250631581158115817049E58124E1F8740326FCE40836FE0886078C828E838F80
:2041A000F074FF12510AA312510AE58124E1F8740826FCE40836FE0886078C828E838FF0CB
:2041C00012580AFB4303018C828E838FF0EB12510A024990E58124DBF8C001E58124DCF9DB
:2041E000E6F70809E6F7D001E58124C7FCE58124B7F8A604E58124DAF8C001E58124B9F99A
:20420000E6F7097700D001E58124DDF8C001E58124B9F9C3E69708E664800987F063F080AF
:2042200095F0D00140030243F7C005E58124F9F8C001E58124DBF9E726FA09E70836FD0810
:204240008607D0018A828D838FF012580AFFD005EF700CE58124BEF876010876008039C004
:2042600005E58124DCF8740126FAE40836FDE58124F9F8EA26FAED0836FB0886058A828B52
:20428000838DF012580AFA7D00E58124BDF874022AF6E43D08F6D005BF05028009BF060353
:2042A0000243B30243DEC005E58124DCF8740326FAE40836FBE58124F9F8EA26FAEB08365E
:2042C000FB0886058A828B838DF0A881181812580AF68C027B007D40C005C004C001741062
:2042E000C0E0E4C0E0C0E08A828B838DF0785579567A00121D71158115811581D001D00446
:20430000D005A881181886037D0074072BFBE43DFDC005C004C0017408C0E0E4C0E08B82B3
:204320008D83125AE2C8E58124B6C8A68208A68315811581D001D004D005E58124F9F8C015
:2043400001E58124DBF9E726FA09E70836FB088605D00174042AFAE43BFBE58124BFF8A6CD
:204360000208A60308A605E58124B6F886057E007F40C005C004C001E58124B8F8E6C0E0CD
:2043800008E6C0E0E58124BAF8E6C0E008E6C0E008E6C0E08D828E838FF078C179567A0090
:2043A000121D71E58124FBF581D001D004D005D005802BE58124DDF8740526FEE40836FF4B
:2043C000E58124FAF8EE26FEEF0836FF0886038E828F838BF0E58124B6F812580AF6E581ED
:2043E00024DDF8C001E58124BDF9E726F609E70836F6D0010241F48C077E007B408F828E29
:20440000838BF0C005C004C00178EE790B7A00121D71AB82AE83AFF0D001D004D005E58173
:2044200024D7F8A60308A60608A607E58124B6F8E66003024659E58124D7F8E60846700355
:20444000024990C001E58124D6F8C001E58124BEF9741626F7E4083609F70809E6F7D001DE
:20446000E58124D6F8741E26FAE40836FE0886078A828E838FF012580AD00160030249905E
:20448000E58124D7F8741F26FBE40836FE0886078B828E838FF012580AFBA88118E6B5036F
:2044A000028003024990E58124D7F886820886830886F0C001785F790B7A00121D71AB8249
:2044C000AE83AFF0D001EB4E700302499089078F057C007B40E58124D7F8868208868308DF
:2044E00086F0C005C004C003C001785F790B7A00121D71AA82AE83AFF0D001D003D004D080
:2045000005C0017410C0E0E4C0E0C005C004C0038A828E838FF0784779537A00121D71AEF2
:2045200082AF83E58124FBF581D001EE4F6003024990E58124C0F8740826FBE40836FE0879
:2045400086078B828E838FF0740112510AE58124C0F886820886830886F0743C12510AA3B6
:20456000E412510AA312510AA312510AE58124F4F8741726FDE40836FC0886038D828C83D9
:204580008BF012580AFFA312580AFEA312580AFAEF4E700302461C8F828E838AF0C005C0D2
:2045A00004C003C001789F79877A01121D71AA82AE83AFF0D001D003D004D005EA4E605C04
:2045C0008D828C838BF012580AFBA312580AFEA312580AFF8B828E838FF0C001789F798733
:2045E0007A01121D71AB82AE83AFF0E58124B9F8E6C0E008E6C0E07402C0E0E4C0E0749BAB
:20460000C0E0E4C0E08B828E838FF0782D79F27A03121D71E58124FAF581D001A881E620B2
:20462000E703024990E58124FDF8860789067B007A40C007C006C003C002E58124F3F886D8
:20464000820886830886F07869794D7A00121D71E58124FCF58102499089077E007B408F59
:20466000828E838BF0C005C004C00178F879827A02121D71AB82AE83AFF0D001D004D005E4
:20468000EB4E6003024748C00575821AC005C004C001784F79C07A03121D71AB82AE83AFA3
:2046A000F0D001D004D005E58124BFF8A60308A60608A60789027D007F40C004C00174017C
:2046C000C0E0E4C0E0E58124BBF8E6C0E008E6C0E008E6C0E08A828D838FF0782F79807A22
:2046E00002121D71AD82AE83AFF0E58124FBF581D001D004E58124BFF8A60508A60608A62B
:2047000007ED4ED0057003024990E58124C0F8741026FBE40836FE088607C005C004C0014E
:204720007458C0E07402C0E0E4C0E0C0E08B828E838FF0787179807A04121D71E58124FCB0
:20474000F581D001D004D005C00589077E007B40A8811818C001E58124BEF9E6F709770023
:204760008C027C007D40C007C006C003E58124BBF8E6C0E008E6C0E0C002C004C005E58120
:2047800024EAF886820886830886F0782279B37A03121D71AD82AE83AFF0E58124F8F581A2
:2047A000D001E58124D6F8A60508A60608A607D005E58124D7F8E608467003024990C0014B
:2047C000E58124D6F8C001E58124BEF9741626F7E4083609F70809E6F7D001E58124F6F87F
:2047E000749126FAE40836FB0886078A828B838FF012580AFAA312580AFBE58124C2F8A6DF
:204800000208A603087600087600E58124B5F886037C007E007F00C005C001C003C004C0E3
:2048200006C007E58124BCF886820886830886F008E6125826AB82AC83AEF0FFE58124FCD9
:20484000F581D001D005E58124BFF886820886830886F0EB12510AA3EC12510AA3EE12511C
:204860000AA3EF12510AE58124D6F8741D26FCE40836FE088607E58124DEF886038C828EEA
:20488000838FF0EB12510AE58124D6F8741E26FCE40836FE0886078C828E838FF0E4125118
:2048A0000AD001ED7003024990E58124F4F8741726FDE40836FE0886078D828E838FF01258
:2048C000580AFAA312580AFBA312580AFCEA4B70030249598A828B838CF0C007C006C00523
:2048E000C001789F79877A01121D71AA82AB83ACF0D001D005D006D007EA4B605C8D828EEE
:20490000838FF012580AFDA312580AFEA312580AFF8D828E838FF0C001789F79877A0112F5
:204920001D71AD82AE83AFF0E58124B9F8E6C0E008E6C0E07402C0E0E4C0E0749BC0E0E46E
:20494000C0E08D828E838FF0782D79F27A03121D71E58124FAF581D001A881E630E731E5E4
:204960008124FDF8860789067D007C40C007C006C005C004E58124F3F88682088683088616
:20498000F07869794D7A00121D71E58124FCF58190075CE4F0A3F09011E8F0E58124B5F563
:2049A00081021D83C082C083C0F0E5812410F58124F1FCFA7B007F408A828B838FF0C004ED
:2049C00078AF79207A00121D71E5828583F0D00445F07002802E7F007E40E58124EAF8E6E6
:2049E000C0E0C004C007C006E58124EAF886820886830886F0780D794A7A00121D71E581FB
:204A000024FCF581E58124EDF581021D83C082C083C0F0E5812409F581788679AD7A031280
:204A20001D71AC82BC0103024D52E58124F5F8E608467003024D52E58124F5F8868208868D
:204A4000830886F0E58124FBF912580AF7A312580A09F7A312580A09F7E58124FBF8E608D3
:204A6000467003024D52E58124FBF8741C26FDE40836FE0886078D828E838FF012580AFDE7
:204A8000A312580AFEA312580AFFE58124F8F8A60508A60608A607ED4E7003024D52E581A8
:204AA00024EFF8E608467003024D529011E8E0242C2466FBE43406FCA8811818A60308A69B
:204AC00004087600901224E0FF24805008901224EF04F08008EF04901224547FF0E581247C
:204AE000F8F8748226FAE40836FB0886048A828B838CF012580AFAA881181886820886838B
:204B00000886F0EA12510AA8811818740126FAE40836FB0886048A828B838CF0E412510A3C
:204B20008A828B838CF012580AFF4307408A828B838CF0EF12510AA8811818740226FDE41A
:204B40000836FE0886078D828E838FF0E412510AA8811818740326FDE40836FE088607905C
:204B60001224E08D828E838FF012510AE58124FBF88605088606088607A8811818740426EB
:204B8000FAE40836FB0886047410C0E0E4C0E0C005C006C0078A828B838CF078C179567A5A
:204BA00000121D71E58124FBF581A8811818741426FDE40836FE0886078D828E838FF0748E
:204BC0000512510AA8811818741526FDE40836FE0886078D828E838FF0741212510AA881EE
:204BE0001818741626FDE40836FE0886078D828E838FF0E412510AA8811818741726FDE448
:204C00000836FE0886078D828E838FF0748012510AE58124EFF88605088606088607A88175
:204C20001818741826FAE40836FB0886047410C0E0E4C0E0C005C006C0078A828B838CF059
:204C400078C179567A00121D71E58124FBF581A8811818742826FDE40836FE0886078D825B
:204C60008E838FF0740612510AA8811818742926FDE40836FE0886078D828E838FF07404D8
:204C800012510AA8811818742A26FDE40836FE0886078D828E838FF0E412510AA88118188F
:204CA000742B26FDE40836FE0886078D828E838FF0E412510AA8811818742C26FDE408364F
:204CC000FE0886078D828E838FF0E412510AA8811818742D26FDE40836FE0886078D828EE2
:204CE000838FF0E58124EEF8E612510AE58124F5F886820886830886F0789F79877A01123D
:204D00001D71AD82AE83AFF0ED4E6046E58124F5F886820886830886F0789F79877A011273
:204D20001D71AD82AE83AFF0742EC0E0E4C0E07402C0E0E4C0E0749BC0E0E4C0E08D828EB6
:204D4000838FF0782D79F27A03121D71E58124FAF581E58124F4F581021D8390075CE4F0CD
:204D6000A3F09011E8F0021D83AD82AE83AFF09011E8E0242C2466FBE43406FC7A007482BE
:204D80002DFDE43EFE8D828E838FF012580A8B828C838AF012510A74012BFDE43CFE8A0767
:204DA0008D828E838FF0E412510A74022BFDE43CFE8A078D828E838FF0E58124FAF8E612A3
:204DC000510A74032BFBE43CFC8B828C838AF0E412510A7404C0E0E4C0E07403C0E0E4C081
:204DE000E0749BC0E0E4C0E0E58124F5F886820886830886F0782D79F27A03121D71E581FF
:204E000024FAF581021D8390122575F000786879EB7A03121D7190122D75F000786879EB57
:204E20007A03121D7190123575F000786879EB7A03121D7190123D75F000786879EB7A03B3
:204E4000121D71021D83AD82AE83AFF0E58124FBF8E608467003024ED3900767EDF0EEA35E
:204E6000F0EFA3F0E58124F9F8860608860790075EEEF0EFA3F0E58124F9F8C374C0967453
:204E8000800886F063F08095F050067CC07D0080048E048F05C004C005E58124F9F8E6C059
:204EA000E008E6C0E008E6C0E090069675F000782579517A00121D71E58124FBF5817582F2
:204EC0000478FB79A57A02121D71785D798B7A03121D7190075EE4F0A3F0021D83C082C02B
:204EE00083C0F0E5812416F58124DDF8E60846700302505AE58124E8F8860208860308860C
:204F0000048C07E58124EEF8E58124EFF6E58124EEF886047D007E407410C0E0E4C0E0C07E
:204F200002C003C0078C828D838EF078C179567A00121D71E58124FBF58124E8F87412267C
:204F4000FCE40836FD0886068C828D838EF0A8811812580AF6A312580A08F6E58124DDF8E7
:204F6000E58124EBF9E6F70809E6F70809E6F7E58124E8F88602088603088607C006C00567
:204F8000C0047410C0E0E4C0E0E58124E6F8E6C0E008E6C0E008E6C0E08A828B838FF0788A
:204FA000C179567A00121D71E58124FBF581D004D005D0068C828D838EF0E58124DBF8E6EE
:204FC00012510AA308E612510AE58124E0F8E6C0E008E6C0E0E58124E0F8E6C0E008E6C05A
:204FE000E008E6C0E0E58124E3F886820886830886F07846794E7A00121D71E58124FBF52E
:205000008124EEF886077E007D40E58124E8F886020886030886047410C0E0E4C0E0C007B9
:20502000C006C0058A828B838CF078C179567A00121D71E58124FBF58124E8F8741226FD85
:20504000E40836FE0886078D828E838FF0A88118E612510AA308E612510AE58124E7F58183
:20506000021D83E58124FCC3C8C0E0C082E608467006E5824583601218E58296F58208E5D7
:205080008396428208E5F0964582D082C8D0E0C822758120125BA9E582600302006E7973F3
:2050A000E94401601B7A02907E8A7855759311E493F2A308B800020593D9F4DAF27593FF47
:2050C000E478FFF6D8FD7800E84400600A7900759300E4F309D8FC7851E84411600C79126A
:2050E000900004E4F0A3D8FCD9FA9004BEE4F0E4F50FF510F511F512900000F0A3F0A3F038
:20510000A3F090104EE4F002006E20F71130F6138883A88220F509F6A8837583002280FE5D
:20512000F280F5F022C013858113C082C083C0F0E581240AF581A81308E513240BF9E6F70B
:205140000809E6F70809E6F7E51324FAF8E5132404F9E6F70809E6F70809E6F7097700A86B
:20516000130886040886050886067F00E5132404F8C3E69C08E69D08E69E08E69F4003029E
:205180005222A813088605088606088607E51324F8F8E62DFD08E63EFE1DBDFF011EE513EE
:2051A00024FAF88602088603088604E51324F8F8E62AFA08E63BFB1ABAFF011BE5132408E1
:2051C000F8A60208A60308A604E51324F8F8E5132404F9E6F70809E6F7E5132404F886033B
:2051E000088604E5132404F816B6FF020816EB4C7003025294E5132408F88682088683084B
:2052000086F012580AFCE5132408F816B6FF0208168D828E838FF0EC12510A1DBDFF011EB1
:2052200080B7A813088605088606088607E51324FAF8E5132404F9E6F70809E6F70809E6D7
:20524000F7E51324F8F8E5132408F9E6F70809E6F7E5132408F88603088604E5132408F810
:2052600016B6FF020816EB4C602AE5132404F886820886830886F012580AFCA31818A68268
:2052800008A6838D828E838FF0EC12510AA3AD82AE8380BDE513240BF886820886830886DF
:2052A000F0851381D013021D83C013858113C082C083E5812405F581AF130FE5132403F802
:2052C000A607087600087640E51324FCFD7E007F40E5132406F9A813088604E51324FCF81B
:2052E00086038CF0EBA4F709A7F0E513240604F98704A81308860374012DFAE43EFE8A82C5
:205300008E838FF012580A8BF0A4FBE5132403F8740126FDE40836FE0886078D828E838F5C
:20532000F012580AFDE51324FCF886078DF0EFA42B2CF7E5132406F987060987078E828F33
:2053400083851381D01322C013E581F5132406F581AD82AE83AFF0E51324F8F8E60846701C
:2053600006900000025434E51324F8F886030886041BBBFF011CEB4C7003025404C003C06D
:2053800004A81308A60508A60608A607A8130886820886830886F012580AFAE51324FAF85C
:2053A000E5132404F9E6F70809E6F70809E6F7E5132404F886820886830886F012580AFCFC
:2053C000EAB504028006D004D0038038A81308740126FAE40836FB0886048A058B068C0789
:2053E000E5132404F8740126FAE40836FB088604E51324FAF8A60208A60308A604D004D094
:20540000030253718D828E838FF012580AFD7F00E51324FAF886030886040886068B828CDE
:20542000838EF012580AFB7E00EDC39BFDEF9EFF8D828F83851381D013021D83C013858112
:2054400013AC82AD83AEF0FF05817B00A813087600E51324FAF8080808E6235401FA704DC9
:20546000E51324FAF8E625E0F608E633F608E633F608E633F6E51324FAF8C3EC96ED08961A
:20548000EE0896EF0896501AE51324FAF8080808E6C313F618E613F618E613F618E613F69C
:2054A000800BA8130806A81308860380A4E51324FAF8C3EC96ED0896EE0896EF08964015DC
:2054C000E51324FAF8ECC396FCED0896FDEE0896FEEF0896FFE51324FAF8080808E6C313FD
:2054E000F618E613F618E613F618E613F68B021BEA70BA8C828D838EF0EF1581D01322C0FF
:2055000013858113058105810581AD82AE83AFF0E51324F8F8E6084670069000000255BF72
:20552000E51324FAF88602088603088604E51324F8F8A91309E6F70809E6F7A8130816B687
:20554000FF020816A81308E60846604C8D828E838FF0E5132403F812580AF6E5132403F852
:20556000E66035C005C006C0078A828B838CF012580AFFE5132403F8E6B507028008D0073B
:20558000D006D0058012D007D006D0050DBD00010E0ABA00A60B80A38D828E838FF01258D2
:2055A0000AFD3395E0FF8A828B838CF012580AFA3395E0FEEDC39AFDEF9EFF8D828F83851A
:2055C0001381D013021D83C013858113C082C083C0F0C0E07A007B007E007F007D20A813A7
:2055E00008080808E6339200A81308E625E0F608E633F608E633F608E633F6EA2AFAEB33CB
:20560000FBEE33FEEF33FF300003430201E51324FAF8C3EA96EB0896EE0896EF0896401C87
:20562000E51324FAF8EAC396FAEB0896FBEE0896FEEF0896FFA81308E64401F6ED14FCFDA7
:20564000709CA8130886820886830886F008E6851381D01322C013858113C082C083C0F0B7
:2056600005810581A813088602088603088604E51324FAF8E5132404F9E6F70809E6F7E5D9
:20568000132404F88606088607E5132404F816B6FF020816EE4F60168A828B838CF0E51372
:2056A00024FCF8E612510AA3AA82AB8380D1A8130886820886830886F0851381D013021DBC
:2056C00083C013E581F5132408F581AD82AE83AFF0E5132406F8A60508A60608A607E5133F
:2056E00024FAF8A91309E6F70809E6F70809E6F7E51324F8F8E5132404F9E6F70809E6F726
:20570000E5132404F88603088604E5132404F816B6FF020816EB4C6028A81308868208863B
:20572000830886F012580AFCA31818A68208A6838D828E838FF0EC12510AA3AD82AE838051
:20574000BFE5132406F886820886830886F0851381D013021D83C013858113789579C07A8F
:2057600002121D71D013021D83C013858113AD82AE83AFF0E51324FCF8E6C0E0C005C006F6
:20578000C007E4C0E0C0E0C0E090575675F000786B79687A00121D71AE82AF83E58124F919
:2057A000F5818E828F83D013021D83C013858113E51324FAFFC007E51324FAF8E6C0E00868
:2057C000E6C0E008E6C0E0E4C0E0C0E0C0E090575675F000786B79687A00121D71AE82AF92
:2057E00083E58124F9F5818E828F83D013021D83AA82AB8312580A6003A380F8C3E5829A76
:20580000F582E5839BF583021D8320F71430F6148883A88220F507E6A88375830022E280B1
:20582000F7E49322E022C013858113C082C083C0F0C0E0E5812408F581E5132409F92402C9
:20584000F8AF130F8F06C000A8068606E51324FAFDFC0C0CA8048604D0008EF0ECA4F608B7
:20586000A6F08F068E0086068D048C0086048EF0ECA4F709A7F0E51324092403F987068F36
:205880000474032CF886048D038B0086038CF0EBA42EF787068F0474022CF886048D03EB4C
:2058A00004F886038CF0EBA42EF7E51324092402F98704098706198F0374022BF886038D74
:2058C000028A0086028BF0EAA4ABF02CFCEB3EFEA70409A706198704098706198F03EB048C
:2058E000F886038D02EA04F886028BF0EAA4ABF02CFCEB3EFEA70409A7068F0674032EF9A3
:205900008F06EE04F886068D0474022CF886048EF0ECA4F78F06EE04F98F06EE04F8860637
:205920008D048C0086048EF0ECA4F709A7F08D0674032EF98F068E0086068D0474032CF80F
:2059400086048EF0ECA4F78D06EE04F98F068E0086068D04EC04F886048EF0ECA4F709A7D3
:20596000F08D0177008F017700E5132409F9E5132405F8E7F609E708F609E708F609E70843
:20598000F6191919A813088602088603088606088607E5132405F8EA26F6EB0836F6EE088D
:2059A00036F6EF0836F6E5132405F8E6F70908E6F70908E6F70908E6F7191919E709E709AD
:2059C000E709E7E51324FAF88604088605088606088607E5132405F8EC26FCED0836FDEE5F
:2059E0000836FEEF08368C828D838EF0851381D01322C013858113AE82E583FF33E433FDBA
:205A00006009C3E49EFBE49FFC80048E038F04E51324FCF808E630E70FE51324FCF8C3E4DB
:205A200096FE08E496FF800AE51324FCF88606088607C005C006C0078B828C83125A60AEAE
:205A400082AF8315811581D005ED600DC3E49EFCE49FFD8C828D8380048E828F83D01322AD
:205A6000C013858113AE82AF837D007C00E51324FCF808E6235401FB7032E51324FCF808B4
:205A8000E618C625E0C63308F6E51324FCF8C3EE96EF08965011E51324FCF808E618C31315
:205AA000C613C608F680050C8C0580C1E51324FCF8C3EE96EF0896400DE51324FCF8EEC3F4
:205AC00096FEEF0896FFE51324FCF808E618C313C613C608F68D041DEC70D18E828F83D050
:205AE0001322C013858113AE82E583FF33E433FD6009C3E49EFBE49FFC80048E038F04E5F2
:205B00001324FCF808E633E433FF600FE51324FCF8C3E496FA08E496FE800AE51324FCF853
:205B20008602088606C007C005C002C0068B828C83125B58AC82AE8315811581D005D0071D
:205B4000EF6D600DC3E49CFDE49EFF8D828F8380048C828E83D01322C013858113AE82AF27
:205B6000837C007D007B10EF339200EFCE25E0CE33FFEDCC25E0CC33FD300003430401E58E
:205B80001324FCF8C3EC96ED08964010E51324FCF8ECC396FCED0896FD430601EB14FAFBA3
:205BA00070C58E828F83D0132275820022C013858113AF8274302FFF24C6500B74072FFF93
:205BC00030000474202FFFE51324F7F8E6C0E008E6C0E008E6C0E0E51324FAF8E6C0E00886
:205BE000E6C0E008E6C0E08F82D002D001D000121D71158115811581D013021D83C01385CE
:205C00008113E582FFC4540FFEC007C020E51324F7F8E6C0E008E6C0E008E6C0E0E51324F5
:205C2000FAF8E6C0E008E6C0E008E6C0E0A20092F085F0208E8278AD795B7A00121D71E50F
:205C40008124FAF581D020D00753070FE51324F7F8E6C0E008E6C0E008E6C0E0E51324FA3C
:205C6000F8E6C0E008E6C0E008E6C0E0A20092F085F0208F8278AD795B7A00121D71E58147
:205C800024FAF581D013021D83C013858113A98287040987050987060987071919197404C4
:205CA00029F87B20C003E626FAEF235401FBEA4203A603EC2CFCED33FDEE33FEEF33FF862E
:205CC00002C000E51324FCF8C3EA96D000D0034012C000E51324FCF8EAC396FAD000A60235
:205CE000430401EB14FAFB70BBA70409A70509A70609A707D013021D83C013858113C082BD
:205D0000C083C0F0C0E0E581241FF581E513240AF87600C204E5132409F87680C020E4C0E0
:205D2000E0C0E0C0E0C0E0A8130886820886830886F008E612777AAB82E58124FCF581D05F
:205D400020EB6012D204A81308E6F608E6F608E6F608E6B2E7F6C02074FFC0E0C0E0747F86
:205D6000C0E0744BC0E0A8130886820886830886F008E6127B04AB82E58124FCF581D02032
:205D8000EB7003025EF67F00C007C020E4C0E0C0E07420C0E07441C0E0A813088682088623
:205DA000830886F008E612777AAB82E58124FCF581D020D007EB703BC007C020E4C0E0C080
:205DC000E07420C0E07441C0E0A8130886820886830886F008E61278B5A81308A68208A63A
:205DE0008308A6F008F6E58124FCF581D020D0070F8095C007C020E4C0E0C0E07480C0E03E
:205E0000743FC0E0A8130886820886830886F008E612777AAB82E58124FCF581D020D007F4
:205E2000EB603BC007C020A81308E6C0E008E6C0E008E6C0E008E6C0E090000075F02074B9
:205E400041127983A81308A68208A68308A6F008F6E58124FCF581D020D0071F8095E5134C
:205E60002409F8A60730043FC020E51324F5F8E6C0E008E6C0E008E6C0E0E51324F8F8E660
:205E8000C0E008E6C0E008E6C0E075822DD002D001D000121D71158115811581D020E51365
:205EA000240AF87601804030023DC020E51324F5F8E6C0E008E6C0E008E6C0E0E51324F877
:205EC000F8E6C0E008E6C0E008E6C0E075822BD002D001D000121D71158115811581D02041
:205EE000E513240AF87601E51324FCF87600C200C201C202C203E51324FBF8B6FF07E513B6
:205F000024FBF876067B007D007E007F3FE51324FBF886048C02EA6048C002C020E4C0E0DB
:205F2000C0E07420C0E07441C0E08B828D838EF0EF1278B5C8E5132405C8A68208A683085D
:205F4000A6F008F6E58124FCF581D020D002E5132405F886030886050886060886071A80F7
:205F6000B5C020C003C005C006C007A8130886820886830886F008E61277AAA81308A68211
:205F800008A68308A6F008F6E58124FCF581D020A8130886820886830886F008E6C020120E
:205FA0007ACAAB82AD83AEF0FFD020E513241BF8A60308A60508A60608A607E513241BF890
:205FC00086820886830886F008E6C020127AF1AA82AD83AEF0FFD020C020C002C005C006C9
:205FE000C007A8130886820886830886F008E6127978AB82AD83AEF0FFE58124FCF581D0C9
:2060000020E513241FF8A60308A60508A60608A607E5132405F8E513240BF67C00E513249A
:206020001BF8E608460846084670030260AF8C070CE5132405F8EF26F9C004C001C020745A
:206040000AC0E0E4C0E0C0E0C0E0E513241BF886820886830886F008E612543CAB82E581E9
:2060600024FCF581D020D00174302BF7C020740AC0E0E4C0E0C0E0C0E0E513241BF886820A
:206080000886830886F008E61255C7AB82AD83AEF0FFE58124FCF581D020D004E513241B64
:2060A000F8A60308A60508A60608A60702601DECFF700DEC04FFE5132405F8EC26F8763084
:2060C000E51324FBF88604E5132423F8A6078C05ED70058D040261C9C007C005C020E5132F
:2060E000241FF8E6C0E008E6C0E008E6C0E008E6C0E090000075F0207441127983AA82AB86
:2061000083AEF0FFE58124FCF581D020E513241FF8A60208A60308A60608A607E513241F43
:20612000F886820886830886F008E6C020127ACAAA82AB83AEF0FFD020E513241BF8A602EE
:2061400008A60308A60608A607E5132423F88607E5132423F806E5132405F8EF26F9E51305
:20616000241BF8860374302BF7E513241BF886820886830886F008E6C020127AF1AA82ABB1
:2061800083AEF0FFD020C020C002C003C006C007E513241FF886820886830886F008E61233
:2061A0007978AA82AB83AEF0FFE58124FCF581D020D005E513241FF8A60208A60308A606F6
:2061C00008A6071DD0070260D08F06E51324FBF8E6600AE51324FBF8E604FD80027D008E6D
:2061E00003ED2BFDFE2004062002033003010E3000030264A8E51324FCF8C3EC964003021D
:2062000064A8200103026344300447C007C006C020E51324F5F8E6C0E008E6C0E008E6C0F2
:20622000E0E51324F8F8E6C0E008E6C0E008E6C0E075822DD002D001D000121D71158115EE
:20624000811581D020D006D007E513240AF8060262E2300246C007C006C020E51324F5F832
:20626000E6C0E008E6C0E008E6C0E0E51324F8F8E6C0E008E6C0E008E6C0E075822BD002DA
:20628000D001D000121D71158115811581D020D006D007E513240AF8068047300344C00735
:2062A000C006C020E51324F5F8E6C0E008E6C0E008E6C0E0E51324F8F8E6C0E008E6C0E06D
:2062C00008E6C0E0758220D002D001D000121D71158115811581D020D006D007E513240A81
:2062E000F806E513240AF88605E51324FCF886048C031CC3EE9B4003026584C007C006C0EB
:2063000005C004C020E51324F5F8E6C0E008E6C0E008E6C0E0E51324F8F8E6C0E008E6C0E9
:20632000E008E6C0E0758230D002D001D000121D71158115811581D020D004D005D006D0B4
:20634000070D80ACE513240AF88603E51324FCF88602C0078A071AC3EE9FD0075049C007C5
:20636000C006C003C002C020E51324F5F8E6C0E008E6C0E008E6C0E0E51324F8F8E6C0E0B5
:2063800008E6C0E008E6C0E0758220D002D001D000121D71158115811581D020D002D00360
:2063A000D006D0070B80ABE513240AF8A603E51324FCF8A60230044DC007C006C003C020CA
:2063C000E51324F5F8E6C0E008E6C0E008E6C0E0E51324F8F8E6C0E008E6C0E008E6C0E064
:2063E00075822DD002D001D000121D71158115811581D020D003D006D007E513240AF8EB2B
:2064000004F602659230024DC007C006C003C020E51324F5F8E6C0E008E6C0E008E6C0E02F
:20642000E51324F8F8E6C0E008E6C0E008E6C0E075822BD002D001D000121D71158115814D
:206440001581D020D003D006D007E513240AF8EB04F6026592200303026592C007C006C0CE
:2064600003C020E51324F5F8E6C0E008E6C0E008E6C0E0E51324F8F8E6C0E008E6C0E00866
:20648000E6C0E0758220D002D001D000121D71158115811581D020D003D006D007E51324FE
:2064A0000AF8EB04F6026592300447C007C006C020E51324F5F8E6C0E008E6C0E008E6C049
:2064C000E0E51324F8F8E6C0E008E6C0E008E6C0E075822DD002D001D000121D711581154C
:2064E000811581D020D006D007E513240AF806026592300246C007C006C020E51324F5F8DD
:20650000E6C0E008E6C0E008E6C0E0E51324F8F8E6C0E008E6C0E008E6C0E075822BD00237
:20652000D001D000121D71158115811581D020D006D007E513240AF8068057300354C00772
:20654000C006C020E51324F5F8E6C0E008E6C0E008E6C0E0E51324F8F8E6C0E008E6C0E0CA
:2065600008E6C0E0758220D002D001D000121D71158115811581D020D006D007E513240ADE
:20658000F806800EE513240AF8A605E51324FCF8A604EF14FDE513240AF88604E513240523
:2065A000F8ED26F98703C007C006C005C004C020E51324F5F8E6C0E008E6C0E008E6C0E0AC
:2065C000E51324F8F8E6C0E008E6C0E008E6C0E08B82D002D001D000121D711581158115AC
:2065E00081D020D004D005D006D0070C8D031DEB70AAE513240AF8A604E51324FBF8E670E9
:20660000030266BEC007C006C004C020E51324F5F8E6C0E008E6C0E008E6C0E0E51324F861
:20662000F8E6C0E008E6C0E008E6C0E075822ED002D001D000121D71158115811581D020D6
:20664000D004D006D007E513240AF8EC04F6E513240AF88605E51324FBF886048C031CEBDD
:2066600060558F030FE5132405F8EB26F98703C007C006C005C004C020E51324F5F8E6C072
:20668000E008E6C0E008E6C0E0E51324F8F8E6C0E008E6C0E008E6C0E08B82D002D001D0D0
:2066A00000121D71158115811581D020D004D005D006D0070D80A5E513240AF8A605300007
:2066C00068E51324FCF8C3EE96505EE513240AF88607E51324FCF886058D041DC3EE9C50BC
:2066E00041C007C006C005E51324F5F8E6C0E008E6C0E008E6C0E0E51324F8F8E6C0E008C2
:20670000E6C0E008E6C0E0758220D002D001D000121D71158115811581D005D006D0070FE8
:2067200080B7E513240AF8A607E5132409F8B6800302685CE51324F5F8E6C0E008E6C0E01E
:2067400008E6C0E0E51324F8F8E6C0E008E6C0E008E6C0E0758265D002D001D000121D718E
:20676000158115811581E513240AF806E5132409F8E630E741E51324F5F8E6C0E008E6C09B
:20678000E008E6C0E0E51324F8F8E6C0E008E6C0E008E6C0E075822DD002D001D000121D17
:2067A00071158115811581E513240AF806E5132409F8C3E496F6E5132409F8C2D575F00A0F
:2067C000E630E704B2D5F4048430D502F4042430FFE51324F5F8E6C0E008E6C0E008E6C098
:2067E000E0E51324F8F8E6C0E008E6C0E008E6C0E08F82D002D001D000121D7115811581BB
:206800001581E513240AF806E5132409F875F00AE6C2D530E704D2D5F40484E5F030D5029B
:20682000F4042430FFE51324F5F8E6C0E008E6C0E008E6C0E0E51324F8F8E6C0E008E6C022
:20684000E008E6C0E08F82D002D001D000121D71158115811581E513240AF806E513240A9A
:20686000F88682851381D013021D83C013858113C082C083C0F0E581241AF581E513240C17
:20688000F8E4F608F6E513240FF9E5132418C8E513240AC82405F6E513240BF8E513240FB1
:2068A000F6E513240BF8C001E5132404F9740426F7D001E51324F7F88602088606088607C7
:2068C0008A828E838FF012580AFDE51324F7F874012AF6E43E08F608A607E5132417F8A665
:2068E00005ED7003027768E5132417F88606E63395E0FFBE2505BF00028003027722C20085
:20690000C201C202C203C204C205C206C207E5132414F87600E5132415F87600E51324169E
:20692000F876FFE51324F7F886060886050886048E828D838CF0E5132417F812580AF6A35A
